S028000062696E2F6F70656E62746C5F6F6C696D65785F73746D3332653430375F6E65742E73726563F5
S31508000000E4210020F5300008E1300008E13000085E
S31508000010E1300008E1300008E1300008E13000086E
S31508000020E1300008E1300008E1300008E13000085E
S31508000030E1300008E1300008E1300008E13000084E
S31508000040E1300008E1300008E1300008E13000083E
S31508000050E1300008E1300008E1300008E13000082E
S31508000060E1300008E1300008E1300008E13000081E
S31508000070E1300008E1300008E1300008E13000080E
S31508000080E1300008E1300008E1300008E1300008FE
S31508000090E1300008E1300008E1300008E1300008EE
S315080000A0E1300008E1300008E1300008E1300008DE
S315080000B0E1300008E1300008E1300008E1300008CE
S315080000C0E1300008E1300008E1300008E1300008BE
S315080000D0E1300008E1300008E1300008E1300008AE
S315080000E0E1300008E1300008E1300008E13000089E
S315080000F0E1300008E1300008E1300008E13000088E
S31508000100E1300008E1300008E1300008E13000087D
S31508000110E1300008E1300008E1300008E13000086D
S31508000120E1300008E1300008E1300008E13000085D
S31508000130E1300008E1300008E1300008E13000084D
S31508000140E1300008E1300008E1300008E13000083D
S31508000150E1300008E1300008E1300008E13000082D
S31508000160E1300008E1300008E1300008E13000081D
S31508000170E1300008E1300008E1300008E13000080D
S31508000180E1300008E130000808B50020C4F202009A
S31508000190012100F075FD012809D04FF40060C4F272
S315080001A002004FF4005100F071FD012008BD002047
S315080001B008BD00BF80B582B000F02AFE01200146C6
S315080001C000F0EAFD0124009400258DF804508DF80E
S315080001D0075002278DF805702846C4F202006946C2
S315080001E000F006FD0420214600F0D6FD4FF4005627
S315080001F000968DF804408DF806508DF807408DF866
S3150800020005704FF40064C4F202042046694600F003
S31508000210EFFC2046314600F03BFD02F05BF902F0A8
S3150800022065F9FCE708B54FF00070012100F0D8FD2C
S315080002304FF00070002100F0D3FD08BD00230360D5
S3150800024043608360C360036143618361C361036282
S3150800025043628362C362036343638363C363402267
S315080002600264202242648364C3640365436583652C
S31508000270C3650366802242668366C366036743676F
S315080002808367C3674FF08062C0F880204FF0007222
S31508000290C0F884204FF08071C0F888104FF4001120
S315080002A0C0F88C10C0F89030C0F89430C0F8983078
S315080002B0C0F89C30C0F8A030C0F8A420C0F8A83018
S315080002C04FF40032C0F8AC204FF48072C0F8B0206A
S315080002D0C0F8B430C0F8B830704700BF82B0002309
S315080002E001934FF40043C4F202031A6902F01C0298
S315080002F0890101F4F8610A43C00281B20A4342F057
S3150800030001021A614FF40042C4F202024FF6FE716E
S31508000310C0F20401019B01330193136913F0010F25
S3150800032002D0019B8B42F5D9019A4FF6FF73C0F2B2
S3150800033004039A421FBF4FF40043C4F202035869EC
S3150800034080B208BF002002B0704700BF10B483B067
S31508000350002301934FF40043C4F202031C6904F01E
S315080003601C0444F00304890101F4F8610C43C0023B
S3150800037081B20C435A611C614FF40042C4F2020276
S315080003804FF6FE71C0F20401019B01330193136914
S3150800039013F0010F02D0019B8B42F5D901984FF655
S315080003A0FF73C0F20403C01A18BF012003B05DF83A
S315080003B0044B7047F0B587B004460D4600230593F5
S315080003C000934FF40043C4F202031E6926F01C068C
S315080003D001A800F073FC02994FF45343CFF6CE639D
S315080003E00B444EF2BF12C0F2E402934298BF46F0A5
S315080003F008061AD94FF24013CFF6E9530B4447F6CD
S315080004003F02C0F27D12934298BF46F00C060CD903
S315080004104FF4F243CFF66C430B444FF4B442C0F2A8
S315080004206222934288BF46F004064FF40043C4F2A2
S3150800043002031E61284600214FF40042FFF786FF9B
S31508000440002800F00F814FF080630593059B2BB1C0
S31508000450059B013B0593059B002BF9D12368002BCF
S315080004605ED001274FF6FE76C0F20406009B0133E4
S31508000470009328463946FFF731FF00F0040083B29F
S3150800048013B9009BB342F1D9009A4FF6FF73C0F235
S3150800049004039A4208BF002000F0E9800021009179
S315080004A028464FF48052FFF751FF002800F0DC8001
S315080004B001274FF6FE76C0F20406009B013300932F
S315080004C028463946FFF70AFF00F0200080B210B927
S315080004D0009BB342F1D9009A4FF6FF73C0F20403AA
S315080004E09A4208BF002000F0C280002300932846E5
S315080004F01021FFF7F3FE00F004039BB21BB14FF483
S315080005000063236201E00023236200F002039BB22A
S3150800051013B1002363611BE04FF48043636117E066
S315080005206369226AD20842EA53022846002192B237
S31508000530FFF70CFF002800F099806FF07F430593C2
S31508000540059B2BB1059B013B0593059B002BF9D118
S315080005504FF40043C4F20203196848F20F12CFF6AB
S3150800056020720A40A06861680843E1680843216967
S31508000570084361690843A1690843E1690843216A98
S315080005800843616A0843A16A0843E16A0843216B84
S315080005900843616B01430A431A60E16BA26B11437E
S315080005A0226C1143626C1143A26C1143E26C114335
S315080005B0226D1143626D0A435A60A26D9A60E26D1C
S315080005C0DA609869A16E626E1143E26E1143226F7A
S315080005D01143626F11434FF6417202400A43216E7E
S315080005E042EA01419961E16FA26F0A43DA6103F5B4
S315080005F08053996943F62372CFF6DE020A40D4F88F
S315080006008400D4F880100843D4F888100843D4F836
S315080006108C100843D4F890100843D4F89410084373
S31508000620D4F898100843D4F89C100843D4F8A010BE
S3150800063001430A439A61D4F8A410D4F8A8201143B8
S3150800064041F40001D4F8AC201143D4F8B02011438A
S31508000650D4F8B8200A43D4F8B41042EA81021A60E2
S31508000660012004E0002002E0002000E0002007B09E
S31508000670F0BD00BF40B14FF40043C4F202031A684C
S3150800068042F008021A6070474FF40043C4F20203AE
S315080006901A6822F008021A60704700BF40B14FF48A
S315080006A00043C4F202031A6842F004021A60704753
S315080006B04FF40043C4F202031A6822F004021A60D7
S315080006C0704700BF4FF41043C4F202031A6842F0A1
S315080006D001021A60704700BF4FF41043C4F20203C8
S315080006E0186800F0010070474FF41043C4F2020383
S315080006F09A6942F480129A61704700BF40B14FF47C
S315080007001043C4F202039A6942F400529A61704790
S315080007104FF41043C4F202039A6922F400529A6114
S31508000720704700BF40B14FF41043C4F202039A6900
S3150800073042F002029A6170474FF41043C4F2020372
S315080007409A6922F002029A61704700BF08B5012033
S31508000750FFF790FFFFF7C8FF0120FFF79FFF012073
S31508000760FFF7CCFF0120FFF7DDFF08BD2DE9F047B5
S31508000770B2B04FF0F050012100F00EFB47200121E6
S3150800078000F00AFB4FF48040012100F017FB01201E
S3150800079000F038FB8E23309300268DF8C6600224BD
S315080007A08DF8C4408DF8C7608DF8C5403746C4F249
S315080007B00207384630A900F01BFA384601210B22F9
S315080007C000F068FA384621460B2200F063FA3846EC
S315080007D003210B2200F05EFA384607210B2200F0AF
S315080007E059FA4FF4006330938DF8C6608DF8C4400B
S315080007F08DF8C7608DF8C5404FF4C057C4F202079C
S31508000800384630A900F0F4F938460B210A4600F0BC
S3150800081041FA322330938DF8C6608DF8C4408DF8BE
S31508000820C7608DF8C5404FF40068C4F20208404618
S3150800083030A900F0DDF9404601210B2200F02AFA22
S31508000840404604210B2200F025FA404605210B22DA
S3150800085000F020FA4FF4C04330938DF8C6608DF847
S31508000860C4408DF8C7608DF8C540384630A900F0F9
S31508000870BFF938460D210B2200F00CFA38460E2136
S315080008800B2200F007FAFFF7CDFCFFF71BFFFFF777
S3150800089023FF0128FBD001A8FFF7D0FC0024019410
S315080008A008944FF400730B930C944FF000430F9386
S315080008B0202312931494159416944FF40063099305
S315080008C04FF4804306934FF0020A4FF003094CF2A7
S315080008D0F108C0F2070841F21967C0F22207A6B26A
S315080008E030465146FFF7FAFC60F31F453046494645
S315080008F0FFF7F4FC60F30F05BD4218BF454503D06A
S315080009000134202CEBD109E0202C07D943F29C2096
S31508000910C0F600004FF4A17102F07EF901A8A1B259
S31508000920FFF748FD38B943F29C20C0F6000040F2B4
S31508000930471102F071F941F20033C2F2000340F6A2
S315080009405042C2F200029A60DB6000221A605A60C6
S315080009504FF41041C4F202010B6140F20063C2F287
S31508000960000340F21060C2F2000098601A60DB6073
S315080009705A6040225A719A884FF4C86060F30C0294
S315080009809A808022DA70CB60FFF7E0FE32B0BDE8CD
S31508000990F08700BF40F28C03C2F2000308221A70E7
S315080009A000225A7027229A706922DA705B221A711D
S315080009B045225A71704700BF38B540F20063C2F24B
S315080009C00003DB78DB091DD140F20064C2F20004A3
S315080009D06588C5F30D0541F2A030C2F2000040F269
S315080009E01061C2F200012A4602F0B4FBE37843F034
S315080009F08003E3704FF41043C4F2020301229A60A5
S31508000A00284638BD002038BD38B541F20033C2F259
S31508000A100003DB78DB0900D0FEE741F21033C2F2AF
S31508000A2000031D8840F65044C2F20004204641F2F5
S31508000A30A031C2F200012A4602F08CFB41F20033D3
S31508000A40C2F200039C6000221A60102199705A6055
S31508000A50C5F30B059D80B022DA704FF41043C4F23B
S31508000A60020301225A6038BD4FF47053C4F20203E0
S31508000A701B69002B0DDA4FF47053C4F2020340F2DF
S31508000A802312C4F267525A6048F6AB12CCF6EF52FC
S31508000A905A6070474FF47053C4F202031A6942F061
S31508000AA000421A61704700BF4FF47053C4F2020344
S31508000AB0D86070474FF47053C4F20203DB6813F42E
S31508000AC0803F1BD14FF47053C4F20203DB6813F066
S31508000AD0100F15D14FF47053C4F20203DB6813F0FC
S31508000AE0EF0F0FD14FF47053C4F20203D86800F029
S31508000AF0020000280CBF0820072070470120704715
S31508000B00052070470620704700B583B008238DF886
S31508000B100730FFF7CFFF8DF807009DF80730DBB2E7
S31508000B20012B08D1FFF7C6FF8DF807009DF807309F
S31508000B30DBB2012BF6D09DF8070003B05DF804FB85
S31508000B4070B50546002659B1012908BF4FF48076CD
S31508000B5006D0022914BF4FF440764FF40076FFE71B
S31508000B60FFF7D2FF082821D14FF47054C4F20204CB
S31508000B70236923F44073236123691E43266123698D
S31508000B8023F0F8032361236943F002031D4325611B
S31508000B90236943F480332361FFF7B6FF236923F003
S31508000BA002032361236923F0F803236170BD00BFA4
S31508000BB070B505460E46FFF7A7FF082816D14FF46D
S31508000BC07054C4F20204236923F440732361236931
S31508000BD043F400732361236943F0010323612E6004
S31508000BE0FFF792FF236923F00103236170BD00BF5D
S31508000BF0F0B400230125032605FA03F20C68144015
S31508000C00944238D107685A0006FA02F4E4432740AA
S31508000C100760076891F804C00CFA02FC4CEA07075B
S31508000C2007600F79013FFFB2012F16D887683C404D
S31508000C30846087684C7994403C43846047689CB2DA
S31508000C4005FA04FC27EA0C074760476891F806C0CE
S31508000C500CFA04F4A4B23C434460C7689CB264002E
S31508000C6006FA04F427EA0404C460C468CF7907FACC
S31508000C7002F22243C2600133102BBDD1F0BC70478B
S31508000C80036919420CBF0020012070470183704791
S31508000C904183704710B401F007039B00C90800EBB5
S31508000CA08100046A0F21994024EA01010162016A60
S31508000CB09A40114301625DF8044B704710B44FF433
S31508000CC06053C4F202039B6803F00C03042B09D09B
S31508000CD0082B0DD0002B36D14FF41053C0F2F40375
S31508000CE0036035E04FF4D853C0F2B70303602FE032
S31508000CF04FF46053C4F202035C685A6802F03F027C
S31508000D0014F4800F4FF46053C4F202035B68C3F314
S31508000D10881319BF4FF4D854C0F2B7044FF41054CF
S31508000D20C0F2F404B4FBF2F101FB03F14FF4605393
S31508000D30C4F202035A68C2F3014201325200B1FBFF
S31508000D40F2F3036004E04FF41053C0F2F4030360B7
S31508000D504FF46052C4F202029168C1F3031140F2E3
S31508000D600003C2F20003595CC9B2046824FA01F10F
S31508000D7041609468C4F382241C5DE4B221FA04F449
S31508000D8084609268C2F342329B5CDBB2D940C16090
S31508000D905DF8044B704700BF39B14FF46053C4F295
S31508000DA002031A6B1043186370474FF46053C4F27A
S31508000DB002031A6B22EA00001863704739B14FF430
S31508000DC06053C4F202035A6C1043586470474FF4D8
S31508000DD06053C4F202035A6C22EA00005864704752
S31508000DE039B14FF46053C4F202031A69104318610B
S31508000DF070474FF46053C4F202031A6922EA0000EE
S31508000E0018617047DC23C4F227231860704700BFB7
S31508000E1082B04FF46053C4F202031A6842F001022A
S31508000E201A6000229A60196821F0847121F48031D1
S31508000E30196043F21001C2F200415960196821F4A1
S31508000E4080211960DA60009201921A6842F48032B1
S31508000E501A604FF46052C4F20202136803F40033B6
S31508000E600193009B01330093019B1BB9009BB3F5CB
S31508000E70A06FF2D14FF46053C4F202031B6813F457
S31508000E80003F14BF012300230193019B012B46D188
S31508000E904FF46053C4F202031A6C42F080521A648B
S31508000EA04FF4E042C4F20002116841F44041116077
S31508000EB09A689A609A6842F400429A609A6842F47C
S31508000EC0A0529A6045F20C42C0F240725A601A6803
S31508000ED042F080721A604FF46052C4F2020213683C
S31508000EE013F0007FFBD04FF47053C4F2020340F2B4
S31508000EF005621A604FF46053C4F202039A6822F03E
S31508000F0003029A609A6842F002029A604FF46052AD
S31508000F10C4F20202936803F00C03082BFAD14FF4CB
S31508000F206D43CEF200034FF000629A6002B070473C
S31508000F3030B4013A8D18A94214D20B461C785A7857
S31508000F4002EB042292B2104480B2824284BF01307E
S31508000F5080B202339D42F1D8CB432B4423F00103E0
S31508000F6002331944A94207D10B781B02184480B2F0
S31508000F70834284BF013080B230BC704738B541F235
S31508000F80A034C2F20004657C143D237C05EB0325DE
S31508000F90ADB2284480B204F11A010822FFF7C8FF4F
S31508000FA004F122012A46FFF7C3FF034620B1000ACF
S31508000FB040EA032080B238BD4FF6FF7038BD00BF47
S31508000FC070B4C4780C44E4B241F21833C2F2000398
S31508000FD0DC700D0A82782A44D2B29A7046785E701E
S31508000FE00078187095420DD90136F6B241F21833D9
S31508000FF0C2F200035E702EB941F21833C2F2000342
S3150800100001301870C9B28C4217DA0132D2B241F2F5
S315080010101833C2F200039A707AB941F21833C2F251
S3150800102000035A780132D2B25A7032B941F21833F3
S31508001030C2F200031A7801321A7070BC704700BFFA
S3150800104010B5014641F22434C2F200042068083083
S31508001050FFF7B6FF226841F21833C2F20003197887
S3150800106011725978517299789172DB78D37210BDE2
S3150800107008B5002006491422FFF75AFF034620B197
S31508001080000A40EA032080B208BD4FF6FF7008BD8B
S31508001090AE13002008B50620FFF770FF08BD00BF95
S315080010A041F29033C2F2000300221A8041F228333B
S315080010B0C2F200035A7640F29403C2F200030122F8
S315080010C01A7040F28803C2F200034FF480621A8055
S315080010D0704700BF40F29403C2F2000300221A7060
S315080010E041F29033C2F200031B882BB941F29033C8
S315080010F0C2F200031880704740F29403C2F200035C
S3150800110001221A70704700BF38B541F22433C2F283
S3150800111000031C6841F22033C2F20003A54A1A6094
S3150800112041F21433C2F200031A60032813D1637E16
S3150800113003F00F03032B40F05B87238A002B40F054
S31508001140578741F21C33C2F2000308221A7001F0D5
S315080011500BFB00F097BD022840F09E8040F2840306
S31508001160C2F20003DA780132D2B2DA70C2B940F2BA
S315080011708403C2F200039A780132D2B29A707AB91D
S3150800118040F28403C2F200035A780132D2B25A708E
S3150800119032B940F28403C2F200031A7801321A7097
S315080011A041F21033C2F2000300221A8041F6E2131C
S315080011B0C2F200031A80637E03F0FD02052A09D1F4
S315080011C0A37E0133DBB2A376782B04BF00236376B4
S315080011D000F00EBF002B00F00B87228A002A4CD0A5
S315080011E0A27E511EA176002A40F00287E27E082AD6
S315080011F005D0591EC9B2012914D8052A12D10023CF
S31508001200637641F21C33C2F2000380221A7001F0A1
S31508001210ABFA41F2A033C2F20003142283F82F205E
S3150800122000F063BE042A9DBF03219140C9B2302154
S31508001230A1760132E27603F00F03013B072B00F299
S31508001240D786DFE813F05D0208001000AC04D50667
S31508001250AC04D506AC0441F2A033C2F20003002266
S3150800126083F82F2053E241F21C33C2F20003042212
S315080012701A7001F079FA00F056BD03F00F03032B3C
S3150800128040F0B68641F21C33C2F2000308221A70F7
S3150800129001F06AFA00F0F6BC41F2A033C2F200038C
S315080012A09B7B452B40F0A48641F2A033C2F2000393
S315080012B0197C5A7C02EB012041F21033C2F200037A
S315080012C01B88984200F3948684B241F21033C2F226
S315080012D000031C8041F2A033C2F200031B7D13F009
S315080012E03F0F40F0858641F2A033C2F200035B7DD2
S315080012F0002B40F07D8641F29C33C2F200031D8824
S315080013002DB941F29C33C2F200035B88A3B141F2C6
S31508001310A033C2F20003DB8BAB4240F0698641F290
S31508001320A032C2F2000241F29C33C2F20003128CD0
S315080013305B889A4240F05C86FFF79AFE4FF6FF7389
S31508001340984240F0558641F2A033C2F20003DB7D95
S31508001350062B31D0012B40F04B8641F2A033C2F266
S31508001360000393F82230082B40F0428641F2A0335E
S31508001370C2F20003002283F822209A8C4FF6F673F5
S315080013809A4241F2A033C2F200038CBF09320832F6
S315080013909A8441F2A033C2F200035A8BDA839A8BFD
S315080013A01A845D8341F29C32C2F2000252889A8303
S315080013B000F017BED6130020FFF76CFE4FF6FF733A
S315080013C0984240F0158641F22833C2F20003597E4E
S315080013D081B341F2A032C2F2000241F22833C2F2CE
S315080013E00003928C9B889A4224D141F2A032C2F221
S315080013F0000241F22833C2F20003528CDB889A427B
S3150800140018D141F2A032C2F2000241F22833C2F2E8
S315080014100003528B1B889A420CD141F2A032C2F2C9
S31508001420000241F22833C2F20003928B5B889A428B
S3150800143000F08D8141F2A033C2F2000393F82F30F9
S3150800144003F03F03022B1CD141F2A033C2F2000382
S315080014509A8C40F28003C2F200031A8040F2940389
S31508001460C2F200030021197041F29033C2F2000360
S315080014701B8893427BD040F29403C2F200030122F8
S315080014801A7041F2A033C2F2000393F82F3013F01A
S31508001490040F40F0AD8541F2A033C2F200031422D6
S315080014A083F82F2041F21032C2F20002282111805F
S315080014B0502283F82E2093F8295093F82D2083F88C
S315080014C0292093F8284093F82C2083F8282083F8BD
S315080014D02C4093F8270093F82B2083F8272083F8CD
S315080014E02B0093F8262040F29401C2F200010A70FC
S315080014F093F82A1083F8261083F82A20691CC9B2A3
S3150800150083F82D10C1B9611CC9B241F2A033C2F2E9
S31508001510000383F82C1079B9411CC9B241F2A033F3
S31508001520C2F2000383F82B1031B941F2A033C2F29C
S315080015300003013283F82A2041F2A033C2F20003E5
S31508001540598C40F28002C2F2000211809A8C5A84A9
S3150800155099845A8BDA839A8B1A8441F29C32C2F2A6
S3150800156000021188598352889A8300F00DBD41F212
S315080015702833C2F200035B7E23B1072B40F04C856B
S3150800158000F042BD41F22431C2F2000141F2283393
S31508001590C2F200030B60032199761976002199752A
S315080015A00420D875D9769A8041F2A034C2F2000494
S315080015B0628CDA80628B1A80A28B5A800120587658
S315080015C040F28402C2F200021178197351785973F5
S315080015D091789973D278DA73188294F82920DA7296
S315080015E094F828209A7294F827205A7294F826209C
S315080015F01A72FFF725FD94F82E3003F0F002502AF0
S315080016007ADD1B095C1FA40040F29503C2F20003B1
S315080016101A78002341F2A031C2F200015AE0CA1832
S3150800162092F8362072B940F29401C2F200010B70AA
S3150800163040F29503C2F200031A7041F22834C2F24E
S3150800164000045DE0012A02D10133DBB242E0022A3E
S315080016502BD10D1895F83750042D26D140F2940257
S31508001660C2F20002137040F29503C2F2000302228E
S315080016701A7041F2A033C2F20003034493F83820EB
S3150800168093F8393043EA022240F28003C2F200039B
S315080016901A8040F20A639A4238BF134641F2283448
S315080016A0C2F200046382A3822AE0084490F8370055
S315080016B070B940F29401C2F200010B7040F2950332
S315080016C0C2F200031A7041F22834C2F2000417E08D
S315080016D00344DBB21846A342A1DB40F29401C2F2EE
S315080016E000010B7040F29503C2F200031A7041F232
S315080016F02834C2F2000403E041F22834C2F200049E
S3150800170041F2A033C2F20003102283F82F2041F2DF
S31508001710A033C2F2000393F82F2042F0020283F8A6
S315080017202F20022283F83620042283F83720062247
S3150800173083F838200A2283F8392041F21032C2F29F
S3150800174000022C211180602283F82E20DAE341F270
S315080017502433C2F2000341F22832C2F200021A60B0
S3150800176041F21C33C2F2000300221A7041F2A03380
S31508001770C2F2000393F82F3013F0040F0ED041F293
S315080017802833C2F200035A7641F21C33C2F2000330
S3150800179020221A7000F0E8FF00F02ABC41F2A032BD
S315080017A0C2F2000292F82E000009800040F294026C
S315080017B0C2F200021070143C201A80B241F21032B4
S315080017C0C2F20002108001F00F01022903D103F0D2
S315080017D03F02122A1DD010B913F0030F19D041F297
S315080017E0A031C2F2000141F22832C2F20002C98CCD
S315080017F01289914240F06E8341F2A031C2F2000193
S3150800180041F22832C2F20002098D5289914240F013
S31508001810618313F0100F77D041F22833C2F2000328
S31508001820198A002970D003F10C00FFF7C9FB41F2B1
S31508001830A033C2F2000393F82A4041F21833C2F2E9
S3150800184000031B78A3425FD141F2A033C2F2000322
S3150800185093F82B0041F21833C2F200035B788342F7
S3150800186052D141F2A033C2F2000393F82C1041F290
S315080018701833C2F200039B788B4245D141F2A0335C
S31508001880C2F2000393F82D2041F21833C2F2000386
S31508001890DB78934238D141F22833C2F200031C7335
S315080018A058739973DA73DB7E03BB41F22833C2F2AD
S315080018B00003987D197E9A7E891AA1EBD001C9B2D8
S315080018C0CAB20844C0B2987512F0800F1CBF4A42CB
S315080018D0D2B241F22833C2F20003D97DA1EB9101BD
S315080018E00A44D2B2DA7502EBD0021A7641F21C33F8
S315080018F0C2F2000301221A7041F22833C2F2000331
S315080019001A7E9A7600221A8241F22833C2F200031E
S315080019105A7E02F00F03013B072B00F26983DFE8CA
S3150800192013F008003A00040151029B02C702D902CB
S31508001930390241F21C33C2F200031B7813F0010F7F
S3150800194000F0568341F22833C2F2000303225A7686
S3150800195041F21C32C2F200024021117000221A82A2
S3150800196041F21033C2F20003188838B141F21C3331
S31508001970C2F2000342221A70FFF762FB41F6E21335
S31508001980C2F2000300221A8000F0EEFE41F228346B
S31508001990C2F2000476E141F21C33C2F200031B785E
S315080019A013F0010F00F0B18041F2A033C2F2000338
S315080019B093F82F3003F03F03122B40F0A68041F234
S315080019C0A033C2F2000393F82E3003F0F002502A37
S315080019D06DDD1B095C1FA40040F29503C2F20003EB
S315080019E01A78002341F2A031C2F2000152E0CA1867
S315080019F092F8362052B940F29401C2F200010B70F7
S31508001A0040F29503C2F200031A7050E0012A02D18F
S31508001A100133DBB23EE0022A2BD10D1895F8375078
S31508001A20042D26D140F29402C2F20002137040F24D
S31508001A309503C2F2000302221A7041F2A033C2F2E1
S31508001A400003034493F8382093F8393043EA022216
S31508001A5040F28003C2F200031A8040F20A639A42F7
S31508001A6028BF1A4641F22833C2F200035A829A82E4
S31508001A701DE0084490F8370050B940F29401C2F2CC
S31508001A8000010B7040F29503C2F200031A700EE0D3
S31508001A900344DBB21846A342A9DB40F29401C2F222
S31508001AA000010B7040F29503C2F200031A7041F26E
S31508001AB02834C2F200040323637641F2A033C2F24B
S31508001AC0000393F82620227293F82720627293F86F
S31508001AD02820A27293F82930E3720120FFF7B0FAA2
S31508001AE041F21C33C2F2000342221A7000222282FB
S31508001AF041F21033C2F200031A8041F6E213C2F231
S31508001B0000031A8000F030FEBCE041F21C33C2F23A
S31508001B10000320221A7000F027FE41F22433C2F295
S31508001B2000031B6800225A76ABE441F2A033C2F2E6
S31508001B30000393F82F3013F0010F38D012F0100F6E
S31508001B4035D141F22833C2F200031B8A002B40F03C
S31508001B504F8241F21034C2F200042088013080B26C
S31508001B60FFF76EFA41F21C33C2F200031A7842F00C
S31508001B7010011970238833B141F21C33C2F20003F5
S31508001B8042F012021A7000F0EFFD41F22834C2F258
S31508001B90000401232382082363760023E37641F2B7
S31508001BA0A033C2F20003112283F82F209DE113F01F
S31508001BB0200F18D041F2A033C2F2000393F8340084
S31508001BC0000293F8351041F22033C2F2000340EACE
S31508001BD001051C682C441C6041F21033C2F2000354
S31508001BE01888411B198041F21033C2F20003188885
S31508001BF060B112F0100F09D141F21C33C2F2000392
S31508001C001A7842F002021A70FFF71AFA41F2A03364
S31508001C10C2F2000393F8302093F8313003EB022325
S31508001C209BB240F28002C2F20002138041F22832CF
S31508001C30C2F20002928A934200D823B940F2800386
S31508001C40C2F200031A8041F22833C2F2000340F2BE
S31508001C508002C2F2000212885A8241F21C33C2F292
S31508001C6000031B7813F0030F00F0C28141F6E2135C
S31508001C70C2F2000300221A8000F076FD41F22834F1
S31508001C80C2F2000441F21C33C2F200031B7813F0BF
S31508001C90200F0ED041F6E213C2F2000300221A808A
S31508001CA0627641F2A033C2F20003142283F82F2091
S31508001CB01BE113F0100F12D041F6E213C2F2000333
S31508001CC000221A800123238204236376E27641F2F6
S31508001CD0A033C2F20003112283F82F2005E141F652
S31508001CE0E212C2F200021288DAB113F0010F1CBF29
S31508001CF00023238201D1218A71B9618A8A4282BF6F
S31508001D0041F6E213C2F20003198041F6E213C2F269
S31508001D1000031B88238204E041F6E213C2F20003A3
S31508001D2019800023E37641F22033C2F2000341F220
S31508001D301432C2F2000212681A6041F6E213C2F2C5
S31508001D4000031B887BB1238A6BB141F21032C2F2C1
S31508001D5000022833138041F2A033C2F2000318228E
S31508001D6083F82F20C7E041F21C33C2F200031B7828
S31508001D7013F0020F00F03C8141F21033C2F2000367
S31508001D8028221A8041F2A033C2F20003102283F8F7
S31508001D902F20B0E041F21C33C2F200031B7813F087
S31508001DA0010F00F0258141F22833C2F20003002218
S31508001DB05A7641F21C33C2F2000310221A7000F060
S31508001DC0D3FC15E141F21033C2F20003188808B1BA
S31508001DD0FFF736F941F2A033C2F2000393F82F3029
S31508001DE013F0010F1FD041F21C33C2F200031B7817
S31508001DF013F0010F41F22833C2F200031FBF072276
S31508001E005A7600229A7612BF1A8206225A7601203C
S31508001E10FFF716F941F21C33C2F2000310221A70BA
S31508001E2000F0A2FC56E041F21C33C2F200031B7814
S31508001E3013F0010F08D041F22833C2F2000305223D
S31508001E405A7600221A82D3E041F21033C2F2000316
S31508001E501B88002B3ED1CBE041F21033C2F20003BF
S31508001E60188808B1FFF7ECF841F2A033C2F2000374
S31508001E7093F82F3013F0010F13D041F22833C2F232
S31508001E80000307225A7600229A760120FFF7D8F82F
S31508001E9041F21C33C2F2000310221A7000F064FCEF
S31508001EA018E041F21033C2F200031B8893B99FE091
S31508001EB041F21C33C2F200031B7813F0010F00F045
S31508001EC0978041F22833C2F2000307225A7600228D
S31508001ED09A768DE041F2A033C2F20003102283F80D
S31508001EE02F2041F22834C2F2000441F21033C2F224
S31508001EF0000328221A8041F2A033C2F200035022BE
S31508001F0083F82E20227A41F2A033C2F2000383F826
S31508001F102A20627A83F82B20A27A83F82C20E27A88
S31508001F2083F82D20227B83F82620627B83F82720DE
S31508001F30A27B83F82820E27B83F829200622DA751B
S31508001F40A2885A84E2889A8441F29C32C2F200023C
S31508001F501188598352889A832288DA8362881A8478
S31508001F60637E13F0100F41F2A033C2F200031DBFC7
S31508001F70002283F8312083F83020062202BF83F836
S31508001F8030200A2283F8312041F2A034C2F200043C
S31508001F904023A37541F21033C2F200031B881A0AC4
S31508001FA022746374002584F8355084F834506586A5
S31508001FB0FFF770F8C04360864523A373E57365751C
S31508001FC0257540F28203C2F200031A88013292B2E2
S31508001FD01A80130AA374E2742583FFF749F8C043ED
S31508001FE0208341F21C33C2F2000300221A7038BD66
S31508001FF041F21033C2F2000300221A8041F21C3368
S31508002000C2F200031A7038BD40F29403C2F200030C
S3150800201001211970FFF7B6BA40F29403C2F2000321
S3150800202001221A70E4E700BF030A43EA002080B2DF
S31508002030704700BF10B504460A1E0FDD41F6E213CD
S31508002040C2F200031A8041F21433C2F20003186880
S31508002050844203D0214692B201F07CF810BD00BF3D
S315080020602DE9F00340F29603C2F200034FF0000C8C
S3150800207083F800C040F29805C2F200052B460122FB
S315080020801F461C88CCB15E88BEB1B0F80080A0455A
S3150800209013D14488B44210D140F29603C2F2000329
S315080020A083F800C0086878608B883B8140F2F903A2
S315080020B0C2F200031B78BB725AE0541CE4B20C331C
S315080020C0092C02D094462246DAE72B4600221E4601
S315080020D01C884CB95C883CB940F29603C2F20003EE
S315080020E01A70082A36D104E00132D2B20C33082A13
S315080020F0EDD1002340F2F902C2F200021678B0468A
S315080021001F4699465FFA83FCAA7AC2EB0804BC42CA
S31508002110C2BFC2EB0602E146D7B201330C35082B23
S31508002120F0D140F29703C2F200031F7040F2F803A1
S31508002130C2F2000383F8009040F29603C2F200034D
S3150800214083F8009040F29803C2F2000309EB4909AC
S3150800215003EB89060268334643F8042B0A68726063
S315080021608A889A8040F2F903C2F200031B78B37298
S31508002170BDE8F003704700BFF0B440F2F903C2F2BD
S3150800218000031E780136F6B21E7040F29803C2F2BA
S3150800219000030122002740F29604C2F20004588880
S315080021A01988014389B259B1997A711A772907DDD5
S315080021B0194601F8017B5F70013101F8017B0F7048
S315080021C022700132D2B20C33092AE8D1F0BC70472A
S315080021D038B541F21033C2F200031B88292B06D802
S315080021E041F21033C2F2000300221A8038BD41F2D0
S315080021F01033C2F2000300221A8041F2A033C2F261
S3150800220000039B8AB3F5807F03D0B3F5007F59D0CE
S3150800221038BD41F2A032C2F2000241F29C33C2F24A
S315080022200003D28C1B889A4269D141F2A032C2F2CD
S31508002230000241F29C33C2F20003128D5B889A4277
S315080022405DD12F4CA51F20462946FFF709FFA4F1AB
S315080022501C03002204F8082C022204F8072C54F860
S31508002260062C626034F8022C228140F28C02C2F2FB
S315080022700002106844F8060C928824F8022C44F8E8
S31508002280160C24F8122C626844F81C2C228924F8AF
S31508002290182C9A8B62816288A28141F29C32C2F222
S315080022A000021188998352886280082204F8102C4B
S315080022B0062204F80F2C41F21033C2F200032A2238
S315080022C01A8038BD41F2A032C2F2000241F29C33B4
S315080022D0C2F20003D28C1B889A4210D141F2A03276
S315080022E0C2F2000241F29C33C2F20003128D5B88EF
S315080022F09A4204D1024908460639FFF7B1FE38BDAD
S31508002300BC13002038B541F2A033C2F20003D98BC2
S315080023108AB24FF6FF739A4215D141F2A033C2F240
S315080023200003188C4FF6FF7398420CD141F2A03384
S31508002330C2F2000343F2B022C0F600021068186029
S3150800234092889A80ADE041F29C33C2F200031B8862
S315080023505A4041F29833C2F200031B881A4212D13E
S3150800236041F2A033C2F200031A8C90B241F29C33B8
S31508002370C2F200035B88584041F29833C2F2000368
S315080023805B8818420CD040F2FC03C2F2000341F20B
S315080023909432C2F200021188198052885A8005E0E8
S315080023A040F2FC03C2F2000319805A8040F2FC0393
S315080023B0C2F2000318885D8840F29803C2F200034F
S315080023C000221C46198881420AD15988A94207D198
S315080023D040F29603C2F200031A70082A58D109E09F
S315080023E00132D2B20C33082AEBD140F29603C2F27C
S315080023F000031A7041F2A034C2F200042046FF21FD
S31508002400062200F0FBFE002384F8203084F82130F1
S3150800241084F8223084F8233084F8243084F8253070
S3150800242040F28C02C2F200021168C4F806109288C3
S315080024306281C4F81610628340F2FC02C2F20002FE
S315080024401188E1845288228541F29C32C2F2000248
S315080024501188A1835288E283237501226275A373CA
S31508002460E2730822227463740623A3740423E374B4
S3150800247022730623637341F22033C2F20003363413
S315080024801C6041F21033C2F200032A221A8038BDBA
S3150800249041F2A033C2F2000354F8040F1860A28870
S315080024A09A8041F2A033C2F2000340F28C02C2F2D3
S315080024B000021168C3F8061092885A8108221A7316
S315080024C000225A7341F21033C2F200031A880E3200
S315080024D01A8038BD08B500F09BFB00F0C9FD00F076
S315080024E0ADFD00F00DF800F081FB08BD08B500F061
S315080024F091FB00F0D9FD00F00FF800F055FB08BD80
S3150800250008B500F075F900F04DF840F21003C2F274
S31508002510000303221A7008BD08B540F20010C2F283
S31508002520000000F09BF801280BD140F21003C2F21C
S31508002530000303221A7040F20010C2F2000000F0F5
S3150800254077F908BD704700BF08B540F21003C2F21C
S3150800255000031B78032B02D1C9B200F05DF800F026
S315080025605FF908BD40F21003C2F20003187801288B
S3150800257004D002280CBF3F2040207047082070472F
S3150800258040F21003C2F200031878012804D002288A
S315080025900CBF3F20402070470820704708B500F060
S315080025A035F908BD08B5FEF7E1F800F08FFD40F2F1
S315080025B04413C2F2000300F5FA70186000F086FDB5
S315080025C040F24013C2F2000300F51C5010301860A8
S315080025D0FEF766FD41F29C33C2F200034FF6A9628C
S315080025E01A8043F61371598041F29833C2F20003F8
S315080025F04FF6FF7119800021598041F29433C2F2D7
S3150800260000031A8040F213125A804EF60310FEF7A2
S3150800261061FDFEF7BFF908BDF8B541F22433C2F2F1
S3150800262000031F68FB693B628E4659B14E1EB6B25F
S315080026300136002307F11C05C45CEA18147201333D
S31508002640B342F9D10EF10401A7F8641007F120008E
S31508002650FFF7F0FCFB690133FB61F8BD10B5FEF727
S31508002660ABF900283ED041F21032C2F200021080C7
S3150800267041F2A033C2F200039C894FF40060FFF7D1
S31508002680D3FC844213D10120FEF73EFD41F21033FC
S31508002690C2F200031B882BB3FFF734FEFEF7B4F92A
S315080026A041F21033C2F2000300221A801AE041F206
S315080026B0A033C2F200039C8940F60600FFF7B4FC7B
S315080026C084420FD1FFF784FD41F21033C2F20003B2
S315080026D01B883BB1FEF798F941F21033C2F20003AA
S315080026E000221A8000F0F2FC40F24413C2F2000302
S315080026F01B68984222D340F24412C2F2000203F544
S31508002700FA73136041F22433C2F2000341F228320D
S31508002710C2F200021A600220FEF7F6FC41F21033FC
S31508002720C2F200031B884BB1FFF7ECFDFEF76CF90C
S3150800273041F21033C2F2000300221A8000F0C6FCF0
S3150800274040F24013C2F200031B68984209D340F2D4
S315080027504012C2F2000203F51C5310331360FFF750
S315080027600BFD002010BD00BF10B541F22433C2F2A4
S3150800277000031C6841F21C33C2F200031B7813F0F5
S31508002780400F05D00123E3610023A4F8643010BD8F
S3150800279013F0010F1CBF0022A4F8642013F0040FE5
S315080027A006D0B4F8641019B104F12000FFF742FC12
S315080027B041F21C33C2F200031B7813F0020F0AD051
S315080027C00023A4F8643041F22033C2F200031868EB
S315080027D0043000F02DF810BD40F24813C2F2000391
S315080027E0FE22DA7018710222A3F84420704700BF4F
S315080027F040F24813C2F2000300221A709A6483F862
S315080028004320A3F844209A705A70704740F2481340
S31508002810C2F200031878003018BF0120704700BFC5
S3150800282040F24813C2F20003002283F8432070479F
S3150800283038B504460178FF291CD140F24814C2F283
S3150800284000040023637001252570FF22E270102220
S3150800285022716371FFF786FEA071FFF791FEE071A2
S31508002860FFF78EFE000A20726572A5720823A4F887
S31508002870443079E140F24813C2F200031B78012B79
S3150800288040F09081C939352900F26B81DFE811F0F3
S31508002890DB00690169016501690169015901FC00EB
S315080028A042012F016901690169016901690169012B
S315080028B069016901690169016901690169016901BA
S315080028C069016901690169016901690169016901AA
S315080028D0690169016901690169016901690169019A
S315080028E0690169017F0054003600730069016901B6
S315080028F06901A1006901B900BD00CE004578FFF75E
S3150800290031FE0138854203DD2220FFF765FF2BE102
S3150800291040F24815C2F20005281DA96C627800F03D
S31508002920A5F9FF23EB706278AB6C1344AB6463784C
S315080029300133A5F8443017E14578FFF713FE01384F
S31508002940854203DD2220FFF747FF0DE1616840F26B
S315080029504815C2F20005A964281D627800F086F9B8
S31508002960FF23EB706278AB6C1344AB646378013376
S31508002970A5F84430F8E040F24813C2F20003FF22FB
S31508002980DA7042689A640122A3F84420ECE040F227
S315080029904813C2F20003FF22DA709B6C406840B10C
S315080029A01844002213F8011B0A44D2B28342F9D113
S315080029B000E0002240F24813C2F20003C3F80720E1
S315080029C001221A7100225A719A710822A3F844202A
S315080029D0CAE040F24813C2F20003FF22DA7043F25B
S315080029E0B822C0F600029A6400221A715A719A71C6
S315080029F00721D9711A725A729A720822A3F84420CA
S31508002A00B2E00020FFF7E8FEAEE040F24813C2F25B
S31508002A100003FF22DA7000221A71597859719A71E7
S31508002A20DA711A720622A3F844209DE040F2481390
S31508002A30C2F2000300221A705A70FF22DA700122CD
S31508002A40A3F8442090E040F24813C2F200039D6CBC
S31508002A50FFF788FD411E2846621C00F0F3FA18B9F4
S31508002A603120FFF7B9FE7FE040F24814C2F20004B5
S31508002A70FF23E370A56CFFF775FD013D2844A064AC
S31508002A800123A4F844306FE04578FFF76BFD023860
S31508002A90854203DD2220FFF79FFE65E040F24813DA
S31508002AA0C2F20003FF22DA700122A3F844206178FB
S31508002AB039B900F0D3FA002856D13120FFF78CFE39
S31508002AC052E040F24813C2F20003986CA21C00F0D0
S31508002AD0B9FA18B93120FFF77FFE45E040F24813EE
S31508002AE0C2F2000361789A6C0A449A643CE040F2A8
S31508002AF04814C2F20004FF23E370002525716571AE
S31508002B00FFF730FDA071E571257265720723A4F8F9
S31508002B10443029E040F24813C2F20003986C616819
S31508002B2000F094FA18B93120FFF756FE1CE040F27F
S31508002B304813C2F20003FF22DA700122A3F84420E8
S31508002B4012E000F077F840F24813C2F20003FF22C1
S31508002B50DA700122A3F8442006E03120FFF73CFE94
S31508002B6002E02020FFF738FE40F24813C2F20003C5
S31508002B7093F84330012B02D11020FFF72DFE40F2C7
S31508002B804813C2F20003B3F844100BB2002B09DD58
S31508002B9040F24810C2F20000012380F843300330A7
S31508002BA0FFF7D2FC38BD00BF08B5FFF7F7FC0128D0
S31508002BB01AD040F29413C2F200031B78012B13D1EA
S31508002BC000F084FA40F29813C2F200031B6803F57A
S31508002BD0BB531033984207D340F29413C2F2000352
S31508002BE000221A7000F026F808BD00BF08B540F2AA
S31508002BF09413C2F2000301221A7000F067FA40F239
S31508002C009813C2F200031860FFF7CEFF08BD00BF95
S31508002C10704700BF704700BF08B540F29C13C2F268
S31508002C200003186040F2A013C2F200031960FFF710
S31508002C30F1FFFCE708B500F00DFAA8B1FDF7A4FA14
S31508002C4090B1FFF77FFC00F027FA00F0F1F920F0C9
S31508002C50604020F07F024EF60853CEF200031A6059
S31508002C6000F0E6F94368984708BD00BF70B5561EE0
S31508002C70B6B24AB14C1E0E44451A14F8013F2B55FC
S31508002C80FFF7C8FFB442F8D170BD00BFF8B50746D4
S31508002C900024254643F2F026C0F60006FFF7BAFFE1
S31508002CA0A359BB420ED8311949680B449F4209D231
S31508002CB043F2F023C0F6000305EB450203EB82035B
S31508002CC0187AF8BD01350C34842CE7D1FF20F8BDFD
S31508002CD02DE9F84380460068FFF7D8FFFF2830D073
S31508002CE0FDF7C2FEF320FDF7DFFEFDF7E3FE012840
S31508002CF01CBF002408F1040904D1FDF7CBFE00200F
S31508002D00BDE8F883D8F80060A71959F80450FFF70A
S31508002D1081FF38462946FDF74BFF082807D1A359F6
S31508002D20AB4206D10434B4F5007FEBD103E00024AE
S31508002D3002E0002400E00124FDF7ACFE2046BDE8D1
S31508002D40F8830020BDE8F88338B504460D4640F2FE
S31508002D50A413C2F20003984209D04FF48043C0F688
S31508002D60000399420BD0FFF7B3FF20B917E040F2F2
S31508002D70A834C2F20004C5F3080393B903E040F28D
S31508002D80A414C2F2000423689D420CD0204640F8E1
S31508002D90045B29464FF40072FFF768FF03E0002042
S31508002DA038BD002038BD204638BD00BF2DE9F041AA
S31508002DB006460C4617461D464FEA51284FEA48284C
S31508002DC00368B3F1FF3F06D140F8048B41464FF440
S31508002DD00072FFF74BFF3368434505D0304641463E
S31508002DE0FFF7B2FF0646D0B13368E41A3444043418
S31508002DF008F50078FFF70EFF331DE31AB3F5007FD9
S31508002E0006D330464146FFF79FFF064650B1041DDC
S31508002E1017F8013B04F8013B013DEBD105E0002022
S31508002E20BDE8F0810020BDE8F0810120BDE8F08111
S31508002E3040F2A833C2F200034FF0FF321A6040F2A4
S31508002E40A413C2F200031A60704700BF70B50446A7
S31508002E500D461646FFF71AFFFF281BD0681E2044AA
S31508002E60FFF714FFFF2817D0620A4FF48043C0F615
S31508002E700003B3EB422F07BF40F2A410C2F20000D2
S31508002E8040F2A830C2F20000214632462B46FFF730
S31508002E908DFF70BD002070BD002070BDF8B50546D9
S31508002EA00E46FFF7F3FE0446701E2844FFF7EEFEB3
S31508002EB00546FF2C18BFFF2832D084422AD85CB3B7
S31508002EC00B282BD8FDF7D0FDF320FDF7EDFDFDF718
S31508002ED0F1FD01281EBF43F2C026C0F600060227F0
S31508002EE003D1FDF7D7FD0020F8BDFFF793FE36F8AE
S31508002EF014003946FDF724FE082803D0FDF7CAFD5D
S31508002F000020F8BD0134E4B2A542EED2FDF7C2FDB9
S31508002F100120F8BD0020F8BD0020F8BD0020F8BD4E
S31508002F200020F8BD00B583B040F2A413C2F2000336
S31508002F301B68B3F1FF3F08BF01201CD040F2A41361
S31508002F40C2F2000399685A681144DA6811441A698A
S31508002F5011445A6911449A690A44D96953185B425B
S31508002F6002AA42F8043D44F28810C0F60000042183
S31508002F70FFF76CFFFFE703B05DF804FB44F20402B9
S31508002F80C0F600024FF48043C0F6000310681B68C1
S31508002F90184444F20803C0F600031B68184444F2B8
S31508002FA00C03C0F600031B68184444F21003C0F66D
S31508002FB000031B68184444F21403C0F600031B6898
S31508002FC0184444F21803C0F600031B68184444F278
S31508002FD08813C0F600031B681844D0F1010038BFF7
S31508002FE00020704708B540F2A413C2F200031B681C
S31508002FF0B3F1FF3F06D040F2A410C2F20000FFF77B
S3150800300067FE88B140F2A833C2F200031B68B3F129
S31508003010FF3F0BD040F2A830C2F20000FFF758FE7F
S31508003020003018BF012008BD002008BD012008BDDA
S315080030304FF48040C0F60000704700BF08B5FFF7A0
S31508003040F7FE08BD08B5FFF701FF08BD08B5FFF78D
S3150800305025FF08BD08B5FFF791FF08BD08B5FFF7BE
S3150800306061FF10B1FFF7BEFF08BD002008BD00BF15
S315080030704EF21003CEF2000300221A6049F23F0115
S31508003080C0F2020159609A600521196040F2AC53FA
S31508003090C2F200031A6070474EF21003CEF2000324
S315080030A000221A60704700BF4EF21003CEF20003EA
S315080030B01B6813F4803F1FBF40F2AC53C2F20003F3
S315080030C01A68013218BF1A60704700BF08B5FFF7C3
S315080030D0EBFF40F2AC53C2F20003186808BD00BF0C
S315080030E008B543F27430C0F600003621FFF794FDA8
S315080030F008BD00BF10B572B640F20002C2F2000267
S3150800310040F21103C2F200039A4210D2131D0E4C6C
S31508003110E41A24F0030404340023104643F2A031D1
S31508003120C0F600015A581A500433A342FAD1074888
S3150800313007494FF000028842B8BF40F8042BFADB73
S31508003140FDF738F810BD00BF1400002080000020ED
S31508003150E41900200F2AF0B445D940EA01039B0779
S3150800316045D1A2F110070C4603463F0900EB0716A6
S31508003170103625681033103443F8105C54F80C5C8C
S3150800318043F80C5C54F8085C43F8085C54F8045C93
S3150800319043F8045CB342ECD17B1C02F00F0CBCF183
S315080031A0030F4FEA03131944034422D90E461D465A
S315080031B0644656F8047B043C032C45F8047BF8D88F
S315080031C0ACF1040402F0030224F00304043423449B
S315080031D0214432B10A4411F8014B914203F8014BDC
S315080031E0F9D1F0BC70470346002AF3D1F9E7034644
S315080031F0F0E76246002AEDD1F3E700BF8307F0B493
S3150800320048D0541E002A43D0CDB2034602E0002C13
S315080032103ED0144603F8015B13F0030F04F1FF32A6
S31508003220F5D1032C2DD9CDB20F2C45EA052545EA53
S31508003230054518D9A4F1100703F110061A463F09E7
S3150800324006EB07161560103242F80C5C42F8085C6B
S3150800325042F8045CB242F5D104F00F040137032C9E
S3150800326003EB07130DD91E462246043A46F8045BBB
S31508003270032AFAD8221F04F0030422F003020432B8
S3150800328013442CB1C9B21C4403F8011BA342FBD159
S31508003290F0BC704714460346C3E700BF2E2F6C697F
S315080032A0622F7569702F6E65746465762E630000EB
S315080032B0FFFFFFFFFFFF00004F70656E424C540092
S315080032C00000080010001800200028003000380010
S315080032D04000480050005800800088009000980080
S315080032E0A000A800B000B800C000C800D000D800F0
S315080032F000400008004000000100000000800008AF
S31508003300004000000200000000C000080040000065
S31508003310030000000000010800000100040000008E
S315080033200000020800000200050000000000040872
S315080033300000020006000000000006080000020067
S31508003340070000000000080800000200080000004E
S3150800335000000A08000002000900000000000C082E
S31508003360000002000A00000000000E08000002002B
S315080033700B0000002E2E2F2E2E2F2E2E2F536F755C
S315080033807263652F41524D434D345F53544D33326A
S315080033902F4743432F766563746F72732E6300005D
S315080033A000000000010203040102030406070809DD
S306080033B0040A
S70508000000F2
