S028000062696E2F6F70656E62746C5F6F6C696D65785F6F6C696D6578696E6F5F7573622E73726563D7
S315080000007C090020612A00084D2A00084D2A0008AC
S315080000104D2A00084D2A00084D2A00084D2A0008D6
S315080000204D2A00084D2A00084D2A00084D2A0008C6
S315080000304D2A00084D2A00084D2A00084D2A0008B6
S315080000404D2A00084D2A00084D2A00084D2A0008A6
S315080000504D2A00084D2A00084D2A00084D2A000896
S315080000604D2A00084D2A00084D2A00084D2A000886
S315080000704D2A00084D2A00084D2A00084D2A000876
S315080000804D2A00084D2A00084D2A00084D2A000866
S315080000904D2A00084D2A00084D2A00084D2A000856
S315080000A04D2A00084D2A00084D2A00084D2A000846
S315080000B04D2A00084D2A00084D2A00084D2A000836
S315080000C04D2A00084D2A00084D2A00084D2A000826
S315080000D04D2A00084D2A00084D2A00084D2A000816
S315080000E04D2A00084D2A00084D2A00084D2A000806
S315080000F04D2A00084D2A00084D2A00084D2A0008F6
S315080001004D2A00084D2A00084D2A00084D2A0008E5
S315080001104D2A00084D2A00084D2A00084D2A0008D5
S315080001204D2A00084D2A00084D2A00084D2A0008C5
S315080001304D2A00084D2A00084D2A00084D2A0008B5
S315080001404D2A00084D2A00084D2A00084D2A0008A5
S3150800015010B582B0044640F20413C2F200031B78BD
S31508000160CBB91020012100F07FFB03238DF8063060
S3150800017014238DF8073002A94FF4805321F8043D63
S315080001801846C4F2010000F09DFA40F20413C2F2C8
S31508000190000301221A70012C08D14FF48050C4F2D2
S315080001A001004FF4805100F0E7FA07E04FF4805061
S315080001B0C4F201004FF4805100F0DCFA02B010BD21
S315080001C008B54FF40060C4F20100012100F0CCFA32
S315080001D040B14FF40060C4F20100202100F0CCFACF
S315080001E0012008BD002008BD80B588B00023009313
S315080001F001934FF48053C4F202031A6842F00102D5
S315080002001A6059680022CFF6FF020A405A601A6837
S3150800021022F0847222F480321A601A6822F480224C
S315080002201A605A6822F4FE025A604FF41F029A6056
S315080002301A6842F480321A604FF48053C4F20203FB
S3150800024040F2DC52196801F400310191009901313C
S315080002500091019911B900999142F3D14FF4805355
S31508000260C4F202031B6813F4003F06D142F6C0200D
S31508000270C0F60000732101F09BFE4FF40053C4F250
S3150800028002031A6842F010021A601A6822F0030282
S315080002901A601A6842F002021A604FF48053C4F2D8
S315080002A002035A685A605A6842F400525A605A68F9
S315080002B042F480625A605A6822F47C125A605A687C
S315080002C042F4E8125A601A6842F080721A604FF4D3
S315080002D08053C4F202031A6812F0007FFBD04FF471
S315080002E08053C4F202035A6822F003025A605A681D
S315080002F042F002025A604FF48053C4F202035A686D
S3150800030002F00C02082AFAD14FF48053C4F2020311
S315080003105A6822F480025A60DA6942F40002DA6105
S315080003200420012100F0A0FA03278DF80A7048235B
S315080003308DF80B30012508AE26F8185D4FF40064D9
S31508000340C4F201042046314600F0BCF94FF40030EF
S31508000350294600F09BFA0520294600F085FA18235D
S315080003608DF80F304FF00408ADF80C808DF80E703C
S31508000370204603A900F0A6F98DF80F800823ADF8EA
S315080003800C30204603A900F09DF94FF4614304930D
S315080003900023ADF81430ADF81630ADF81830ADF8C6
S315080003A01C300C23ADF81A304FF48849C4F2000902
S315080003B0484604A900F07CFA4846294600F0E2FAC5
S315080003C04046294600F050FA8DF80A7010238DF839
S315080003D00B302025ADF808502046314600F072F95A
S315080003E02046294600F0C6F901F052FB01F05CFBF5
S315080003F0FCE700BF08B501F0A1FF08BD08B501F08C
S31508000400F9FF08BD08B540F20813C2F200031B68DD
S31508000410052B01D101F092FF08BD00BF40F25073D1
S31508000420C2F200039B7A2BB140F20813C2F2000312
S3150800043005221A60704700BF40F20813C2F2000393
S3150800044004221A60704700BF704700BF704700BF9C
S3150800045010B5062810D140F27073C2F200031B686B
S315080004601A7802F07F02012A08D15A7942B99A7895
S31508000470212A07D0022010BD022010BD022010BD7F
S31508000480022010BD40F2D552C0F600029A6100243F
S315080004905C82204600F09EF8204610BD0220704778
S315080004A021B9002814BF0220002070470220704797
S315080004B010B501F0CFFF40F27073C2F200031B685B
S315080004C000249C7200F0E4F801F0BCFA40F208132C
S315080004D0C2F200031C6010BD10B540F27073C2F280
S315080004E000031B6800249C7242F60832C0F600021C
S315080004F0D2795A72DC72204601F066F920464FF42A
S31508000500007101F06BF92046102101F073F92046BD
S31508000510402101F015FA2046802101F0FFF9204616
S3150800052001F0C4F940F20803C2F20003204693F82A
S315080005302C1001F049FA204601F0A6F901202146BF
S3150800054001F04CF901204FF4807101F0E7F9012020
S31508000550C02101F0F5F90120402101F025FA01201A
S31508000560402101F031FA01204FF4405101F05EF9C3
S315080005700120202101F03EF9204600F009FF40F253
S315080005800813C2F2000301221A6010BD08B540F232
S315080005906401C2F2000100F04DFC08BD08B540F246
S315080005A00001C2F2000100F045FC08BD08B540F2A2
S315080005B07073C2F200031B68D978052908D840F27F
S315080005C06C03C2F2000303EBC10100F033FC08BD63
S315080005D0002008BD08B540F25C01C2F2000100F037
S315080005E029FC08BD08B545F64443C4F200031A6859
S315080005F092B240F23C73C2F200031A801A8840F2A3
S315080006007473C2F200031B88134003F400739BB291
S3150800061083B145F64443C4F200034FF6FF521A600D
S3150800062040F20513C2F200031A780132D2B21A70E8
S31508000630FFF7E8FE40F23C73C2F200031A8840F264
S315080006407473C2F200031B88134003F400439BB281
S315080006500BB100F021FF40F23C73C2F200031A8886
S3150800066040F27473C2F200031B88134003F48063DC
S315080006709BB263B145F64443C4F200034FF6FF321A
S315080006801A6040F20803C2F200035B68984708BD87
S3150800069008B50120FFF75CFD45F64043C4F20003A8
S315080006A001221A6040F27472C2F200020020186039
S315080006B045F64441C4F2000108604FF4E051118048
S315080006C0196008BD2DE9F001CB7803F00F0513F08A
S315080006D0100F1CBF8B781D430B78F3B107680023F6
S315080006E001264FF00F0C06FA03F20C8814409442C8
S315080006F00FD19A000CFA02F827EA080705FA02F25F
S315080007001743CA78282A08BF446102D0482A08BF76
S3150800071004610133082BE6D107600B88FF2B20D92B
S315080007204768002301264FF00F0C03F1080206FA6A
S3150800073002F20C88144094420FD19A000CFA02F87F
S3150800074027EA080705FA02F21743CA78282A08BFD3
S315080007504461CA78482A08BF04610133082BE4D1EA
S315080007604760BDE8F0017047836819420CBF002056
S3150800077001207047016170474161704710B44FF41A
S315080007808053C4F202035B6803F00C03042B08D001
S31508000790082B0CD09BBB4FF49053C0F27A0303602E
S315080007A032E04FF49053C0F27A0303602CE04FF422
S315080007B08053C4F202035A685B68C2F3834202326A
S315080007C013F4803F07D14FF41063C0F23D0303FBD7
S315080007D002F2026018E04FF48053C4F202035B6829
S315080007E013F4003F19BF4FF41063C0F23D034FF4F2
S315080007F09053C0F27A0303FB02F2026004E04FF45E
S315080008009053C0F27A0303604FF48053C4F2020394
S315080008105968C1F3031140F2F002C2F20002515CBA
S31508000820C9B2046824FA01F141605C68C4F3022481
S31508000830145DE4B221FA04F484605C68C4F3C2244B
S31508000840125DD2B2D140C1605A68C2F3813240F219
S31508000850EC03C2F200039B5CDBB2B1FBF3F101616E
S315080008605DF8044B704700BF39B14FF48053C4F2AA
S3150800087002039A691043986170474FF48053C4F293
S3150800088002039A6922EA00009861704739B14FF469
S315080008908053C4F20203DA691043D86170474FF4F3
S315080008A08053C4F20203DA6922EA0000D86170476D
S315080008B030B587B004460D46038A23F440531B041B
S315080008C01B0CCA881343038283890989AA880A43A9
S315080008D069890A4323F4B05323F00C031B041B0C49
S315080008E013439BB28381838A23F440731B041B0C36
S315080008F0AA891343838201A8FFF740FF4FF4605388
S31508000900C4F201039C420CBF049A039AA3891BB242
S31508000910002B02EB820202EB8202BDBF2B685B0052
S31508000920B2FBF3F22968A4BF8900B2FBF1F248F2E0
S315080009301F53C5F2EB13A3FB02135B091D016420C9
S3150800094003FB1023A08900B200280BDADB00323340
S3150800095048F21F51C5F2EB11A1FB0321C1F3421165
S3150800096029430AE01B01323348F21F51C5F2EB1145
S31508000970A1FB0321C1F34311294389B2218107B0A1
S3150800098030BD00BF29B183899BB243F400538381EC
S315080009907047838923F400531B041B0C838170471B
S315080009A008B538B940F27073C2F200031B68012219
S315080009B01A8208BD40F26C73C2F200031B681B68FA
S315080009C0984740F27073C2F2000318680A3008BDEF
S315080009D008B538B940F27073C2F200031B680122E9
S315080009E01A8208BD40F26C73C2F200031B689B684A
S315080009F0984740F27073C2F2000318680C3008BDBD
S31508000A0008B538B940F27073C2F200031B680222B7
S31508000A101A8208BD40F24073C2F2000300221A800F
S31508000A2040F27073C2F200031A68137813F07F035A
S31508000A3017D1537A13F0200F1FBF40F24072C2F24B
S31508000A4000020221117013F0400F40F24073C2F207
S31508000A5000031A7814BF42F0010222F001021A704C
S31508000A602BE0012B35D0022B38D1537903F00F0236
S31508000A7013F0800F10D0920002F1804202F5B842BE
S31508000A80136803F03003102B17D140F24073C2F2FB
S31508000A90000301221A7010E0920002F1804202F56A
S31508000AA0B842136803F44053B3F5805F01BF40F2C0
S31508000AB04073C2F2000301221A7040F26C73C2F24C
S31508000AC000031B681B69984740F24070C2F2000099
S31508000AD008BD40F24070C2F2000008BD002008BD03
S31508000AE0F8B540F27073C2F200031C68238A227AB2
S31508000AF0002B08BF042A29D140F20C13C2F20003C6
S31508000B001B78012B1AD145F65043C4F200031A6824
S31508000B1092B243F20203C2F2000313445B000022BE
S31508000B201A6040F27873C2F200033021198040F24D
S31508000B300C13C2F200031A70042632E040F27873EE
S31508000B40C2F2000310221A8007262AE0A58AAB42C1
S31508000B508CBF022604269D4228BF1D46A369284647
S31508000B6098470746002000F0FFFE014638462A4609
S31508000B7000F000FE0020294600F016FF238A5B1BC2
S31508000B802382638A1D44658240F27873C2F20003A9
S31508000B9030221A8040F27673C2F200034FF44052B4
S31508000BA01A8040F27073C2F200031B681E72F8BD09
S31508000BB008B540F27073C2F200031A68D17840F2A1
S31508000BC09403C2F200035B788B420DD393786BB91A
S31508000BD093886BB9917240F26C73C2F200031B687A
S31508000BE05B689847002008BD022008BD022008BDA2
S31508000BF0022008BD10B540F27074C2F200042268E3
S31508000C0040F24873C2F200031B689B695079D17899
S31508000C10984723689A7A92B198B91A799AB99B78BB
S31508000C209BB940F26C73C2F200031B68DB689847F5
S31508000C3023685A79DA72DA781A73002010BD02200E
S31508000C4010BD022010BD022010BD022010BD00BF3D
S31508000C5010B540F27073C2F200031A68137813F0E5
S31508000C607F0305D1537A23F020035372002010BD69
S31508000C70022B6FD15388002B6ED11379002B6DD1BF
S31508000C80517921F0800011F0800F4FEA800303F1BB
S31508000C90804303F5B84319BF1C6804F030041B6889
S31508000CA003F4405440F29403C2F200031B789842BE
S31508000CB056D2002C56D0937A002B55D011F0800FBF
S31508000CC012D0830003F1804303F5B8431B6803F091
S31508000CD03003102B35D1C4B2204600F00BFE204657
S31508000CE0302100F087FD2CE0840004F1804404F5EF
S31508000CF0B844236803F44053B3F5805F21D198B90B
S31508000D0040F20803C2F2000393F82C1000F05CFED0
S31508000D1022684BF68F73134083F4405343F4004321
S31508000D2043F0800323600CE000F0D0FD22684BF608
S31508000D308F73134083F4405343F4004343F0800316
S31508000D40236040F26C73C2F200031B685B69984724
S31508000D50002010BD022010BD022010BD022010BDCB
S31508000D60022010BD022010BD022010BD10B540F2B1
S31508000D707073C2F200031868427922F0800112F0FB
S31508000D80800F4FEA810303F1804303F5B84319BF87
S31508000D901C6804F030041B6803F4405440F29403C2
S31508000DA0C2F200031B78994227D243883BBB44B35F
S31508000DB0837A43B312F0800F4FEA810202F1804230
S31508000DC002F5B84211681DBF48F6BF730B4083F0A1
S31508000DD010034BF68F7304BF0B4083F4805343F420
S31508000DE0004343F08003136040F26C73C2F20003C1
S31508000DF01B689B699847002010BD022010BD022081
S31508000E0010BD022010BD022010BD00BF08B540F27B
S31508000E107073C2F200031B685A7A42F020025A72B3
S31508000E2040F26C73C2F200031B68DB699847002026
S31508000E3008BD00BF40F27073C2F200031B685A8AED
S31508000E4018B989888A1A1A82704708681044704740
S31508000E5008B540F20803C2F20003002093F82C10EC
S31508000E6000F0B2FD40F27073C2F200031B68187AF4
S31508000E7008280CD140F27673C2F200034FF4805270
S31508000E801A8040F27873C2F2000310221A800928E9
S31508000E9014BF0020012008BD70B582B045F6504346
S31508000EA0C4F200031A6892B243F20403C2F20003C2
S31508000EB013445B001D6840F27073C2F200031B689E
S31508000EC01A7A092A1BD0ADB26D0005F1804505F5E1
S31508000ED0C0452A781A7040F27074C2F2000423687A
S31508000EE06A785A702668A88800F0A6FD7080266879
S31508000EF0288900F0A1FDB080AA892368DA8040F22B
S31508000F007073C2F200031B6801221A72DA88002A7B
S31508000F1077D15C781A7812F07F022ED1092C02D18B
S31508000F20FFF746FE3BE0052C0FD193F90320002A74
S31508000F30B8BF08225EDB9A78002A55D19A88002A1B
S31508000F4054D19B7A002B39D052E0032C07D1DA789A
S31508000F50012A25D19B881BBBFFF758FF1FE0012CF0
S31508000F601ED1DA78012A1BD19A88CAB95B7A13F09E
S31508000F70200F15D0FFF76CFE11E0012A04D10B2CC7
S31508000F800ED1FFF737FE0AE0022A09D1012C02D159
S31508000F90FFF75EFE03E0032C02D1FFF7E7FE68B118
S31508000FA040F24873C2F200031B685B692046984703
S31508000FB0032808BF09221DD00822D8B945F6504390
S31508000FC0C4F200031A6892B243F20203C2F20003A3
S31508000FD013445B0000221A6040F27873C2F20003E1
S31508000FE030221A80062205E0082203E0082201E0E2
S31508000FF00822FFE740F27073C2F200031B681A72F8
S3150800100017E15A78062A21D11A7812F07F0F40F094
S31508001010A9809B78012B06D140F24873C2F20003DF
S315080010201B68DA698DE0022B06D140F24873C2F2DA
S3150800103000031B681A6A84E0032B40F0938040F291
S315080010404873C2F200031B685A6A7AE0002A52D132
S315080010505A88002A40F086805A6822F47F42B2F500
S31508001060003F7FD11A7812F07F0204D19B88002BAB
S3150800107000F0E28076E0012A14D140F24872C2F20A
S31508001080000212689269587900219047002869D1B0
S3150800109040F27073C2F200031B689B7A002B40F083
S315080010A0D0805FE0022A5DD15A7902F00F0112F072
S315080010B0800F4FEA810303F1804303F5B84319BF54
S315080010C0186800F030001B6803F4405040F294039F
S315080010D0C2F200031B78994244D212F0700F14BF73
S315080010E00023012300280CBF002003F0010000287C
S315080010F040F0AC8036E0082A05D11B7813F07F0F44
S3150800110000F0A9802EE00A2A2CD11A7802F07F0274
S31508001110012A27D19A7A2AB35A881ABB5A6822F41E
S315080011207F42B2F5803F1DD140F24872C2F20002FA
S3150800113012689269587900219047002800F090803B
S3150800114010E07AB140F27074C2F2000423680020FD
S3150800115058829A61904723681A8A4FF6FF718A4225
S3150800116026D120E040F24873C2F20003196840F223
S315080011707073C2F200031A680B69507898470328FF
S3150800118007D140F27073C2F200031B6809221A7273
S315080011904FE040F27073C2F200031B681A8A4FF6DA
S315080011A0FF718A4202D109221A7242E0022800D04F
S315080011B012B908221A723CE093F9001000292FDAB6
S315080011C0D98801910198824202D9019A1A821CE0B3
S315080011D091421AD940F24871C2F20001096891F8A1
S315080011E02C10914206D940F20C12C2F200020021DC
S315080011F011700AE092FBF1F001FB10222AB940F2C5
S315080012000C12C2F200020121117040F24872C2F2B9
S315080012100002126892F82C209A82FFF761FC08E017
S3150800122003221A7240F27673C2F200034FF4405258
S315080012301A80FFF70DFE18E040F60122C0F60002FC
S3150800124080E740F60122C0F600027BE740F601225D
S31508001250C0F6000276E740F6A112C0F6000271E772
S3150800126040F6D112C0F600026CE702B070BD00BFAE
S3150800127070B540F27073C2F200031C68237A022B21
S3150800128018BF042B08BF082274D0032B18BF052BE0
S3150800129063D1228AA369ABB1A2B1A58A954228BFB8
S315080012A01546284698470646238A5B1B2382638A87
S315080012B02B446382002000F067FB014630462A462D
S315080012C000F072FA238A002B5DD040F27673C2F2E0
S315080012D000034FF440521A800020014600F064FBD8
S315080012E040F27873C2F2000330221A80238AA28A57
S315080012F09A4207D840F27073C2F200031B680322B1
S315080013001A7223E03BB140F27073C2F200031B6805
S3150800131005221A721AE040F27073C2F200031B68C3
S3150800132006221A7245F65043C4F200031A6892B2AE
S3150800133043F20203C2F2000313445B0000221A6060
S3150800134040F27873C2F2000330221A8040F27073BA
S31508001350C2F200031B681A7A0CE0072B18BF082292
S3150800136008D140F24873C2F200031B68DB6898474D
S315080013700822FFE740F27073C2F200031B681A7274
S31508001380FFF766FD70BDA38A002BC4D1B2E700BF84
S3150800139070B440F29403C2F200031D789DB1002395
S315080013A040F60F76DAB2910001F1804101F5B841B5
S315080013B00C6842F4004242F08002344022430A603C
S315080013C001339D42EED840F0800045F64C43C4F206
S315080013D00003186070BC704708B540F27073C2F21B
S315080013E000031A68137A022B18BF042B08D1FFF7DB
S315080013F077FB40F27073C2F200031B681A7A1DE08D
S31508001400062B18BF082219D15378052B0DD113784E
S3150800141013F07F0F09D1D078FFF7BAFF40F26C734B
S31508001420C2F200031B681B6A984740F24873C2F26F
S3150800143000031B689B6898470822FFE740F2707311
S31508001440C2F200031B681A72FFF702FD08BD00BF4F
S31508001450704700BF08B540F27072C2F2000240F24F
S315080014605073C2F20003136002221A7240F24872E5
S31508001470C2F2000240F20803C2F20003136040F20F
S315080014806C72C2F2000240F23801C2F20001116029
S315080014901B68984708BD00BF2DE9F04383B00023B9
S315080014A0ADF8063045F64447C4F2000740F23C74EE
S315080014B0C2F2000440F24C76C2F2000640F2B408CA
S315080014C0C2F2000840F2D009C2F2000940F276756D
S315080014D0C2F2000543E1238803F00F033370002BA3
S315080014E040F00F814FF4B843C4F200031A6892B271
S315080014F02A80298801F0300140F27872C2F200028F
S3150800150011802A8802F440522A8019684BF6BF7265
S315080015100A4082F4005282F0200242F4004242F06D
S3150800152080021A60238803F010039BB2002B46D171
S315080015304FF4B844C4F20004226848F60F73134007
S315080015402360FFF749FF22684BF6BF73134040F24A
S315080015507672C2F20002128802F4805292B20AB17E
S3150800156083F4805340F27672C2F20002128802F4C3
S31508001570005292B20AB183F4005340F27872C2F272
S315080015800002128802F0100292B20AB183F0100328
S3150800159040F27872C2F20002128802F0200292B279
S315080015A00AB183F0200348F28002CFF6FF721A438D
S315080015B092B24FF4B843C4F200031A60D6E04FF46F
S315080015C0B843C4F200031B689BB2ADF80630BDF8F9
S315080015D0063003F400639BB2002B46D04FF4B844A0
S315080015E0C4F20004226840F68F7313402360FFF7A5
S315080015F053FC22684BF6BF73134040F27672C2F270
S315080016000002128802F4805292B20AB183F480531F
S3150800161040F27672C2F20002128802F4005292B2C6
S315080016200AB183F4005340F27872C2F200021288BB
S3150800163002F0100292B20AB183F0100340F27872F7
S31508001640C2F20002128802F0200292B20AB183F0B6
S31508001650200348F28002CFF6FF721A4392B24FF483
S31508001660B843C4F200031A6080E0BDF806301BB226
S31508001670002B74DA4FF4B844C4F20004226840F62A
S315080016808F7313402360FFF7F3FD22684BF6BF7391
S31508001690134040F27672C2F20002128802F48052B7
S315080016A092B20AB183F4805340F27672C2F2000213
S315080016B0128802F4005292B20AB183F4005340F23F
S315080016C07872C2F20002128802F0100292B20AB1CF
S315080016D083F0100340F27872C2F20002128802F018
S315080016E0200292B20AB183F0200348F28002CFF6B4
S315080016F0FF721A4392B24FF4B843C4F200031A6059
S3150800170034E09B0003F1804303F5B8431A6892B2AC
S31508001710ADF80620BDF8062012B2002A09DA1968C3
S3150800172040F68F720A401A603378013B59F8233025
S315080017309847BDF8063003F080039BB27BB1327838
S31508001740920002F1804202F5B842116848F60F731A
S315080017500B4013603378013B58F8233098473B68B1
S315080017609AB2228013F4004F7FF4B5AE03B0BDE8F9
S31508001770F08300BF10B4531C01F1005101F540522B
S3150800178052005B100DD00432023010F8014C10F8EC
S31508001790021C41EA042122F8041C04320230013BEF
S315080017A0F3D15DF8044B7047013201F1005101F5A0
S315080017B040514900531005D051F8042B20F8022B4C
S315080017C0013BF9D1704700BF4FF6F873034045F661
S315080017D05042C4F200021360704700BF800000F157
S315080017E0804202F5B842106848F68F130340194341
S315080017F011607047800000F1804202F5B842106817
S3150800180048F6BF73034001F0100080B208B183F0B8
S31508001810100301F0200189B209B183F0200343F4D3
S31508001820004343F080031360704700BF800000F157
S31508001830804202F5B84210684BF68F73034001F4F4
S31508001840805080B208B183F4805301F4005189B204
S3150800185009B183F4005343F4004343F08003136053
S31508001860704700BF800000F1804202F5B842116857
S3150800187048F6BF730B4083F0300343F4004343F04C
S3150800188080031360704700BF800000F1804202F5B4
S31508001890B84211684BF68F730B4083F4405343F4F8
S315080018A0004343F080031360704700BF800000F1D7
S315080018B0804202F5B842116840F60F630B4043F4C4
S315080018C0004343F080031360704700BF800000F1B7
S315080018D0804303F5B8431A6812F4804F08D0196894
S315080018E040F60F720A4042F4404242F080021A6003
S315080018F0704700BF800000F1804303F5B8431A68BB
S3150800190012F0400F08D0196840F60F720A4042F4E8
S31508001910004242F0C0021A60704700BF45F65043C5
S31508001920C4F200031A684FF6FE730B4092B202EB3C
S31508001930C00000F1005202F5405252001360704791
S3150800194045F65043C4F200031B684FF6FE720A4080
S315080019509BB203EBC00043F20403C2F20003034444
S315080019605B001A60704700BF45F65043C4F2000397
S315080019701B689BB203EBC00000F1005303F540530C
S315080019805B001888704700BF45F65043C4F2000351
S315080019901B689BB203EBC00043F20403C2F20003C8
S315080019A003445B001888704745F65043C4F20003A9
S315080019B01B689BB203EBC00043F20203C2F20003AA
S315080019C003445B001960704745F65043C4F20003B0
S315080019D01B689BB203EBC00043F20603C2F2000386
S315080019E003445B003E290BD94A0911F01F0F04BFB7
S315080019F002F1FF3292B2920242F400421A60704734
S31508001A004A0811F0010F1CBF013292B292021A6005
S31508001A10704700BF45F65043C4F200031B689BB2EB
S31508001A2003EBC00043F20603C2F2000303445B0063
S31508001A301868C0F309007047C3B2000A40EA0320D9
S31508001A40704700BF45F64443C4F2000300201860FF
S31508001A5040F27473C2F200034FF406421A8045F648
S31508001A604043C4F200031A60704700BF70B50E46C3
S31508001A7000F07F052846FFF7CDFF04462846FFF706
S31508001A8083FF014630462246FFF78EFE204670BD8C
S31508001A9008B500F089FA00F017FD00F0FBFC00F02D
S31508001AA00DF800F06FFA08BD08B500F07FFA00F0EF
S31508001AB027FD00F00FF800F045FA08BD08B500F05C
S31508001AC065F800F041FB40F20013C2F2000302225F
S31508001AD01A7008BD08B540F21010C2F2000000F0F6
S31508001AE0CDFB01280BD140F20013C2F200030222FB
S31508001AF01A7040F21010C2F2000000F067F808BD34
S31508001B0008B500F077FB08BD08B540F20013C2F22D
S31508001B1000031B78022B02D1C9B200F071FB00F05A
S31508001B204DF808BD40F20013C2F2000318780228E7
S31508001B3006D0032806D001280CBF0820402070478D
S31508001B403F2070470020704740F20013C2F200039E
S31508001B501878022806D0032806D001280CBF0820CA
S31508001B60402070473F2070470020704708B500F0B6
S31508001B701BF808BD40F25013C2F20003FE22DA70C9
S31508001B8018710222A3F84420704700BF40F2501390
S31508001B90C2F2000300221A709A6483F84320A3F85D
S31508001BA044209A705A70704740F25013C2F20003EC
S31508001BB01878003018BF0120704700BF40F2501354
S31508001BC0C2F20003002283F84320704738B5044662
S31508001BD00178FF291CD140F25014C2F200040023F8
S31508001BE0637001252570FF22E2701022227163714D
S31508001BF0FFF798FFA071FFF7A7FFE071FFF7A4FFB3
S31508001C00000A20726572A5720823A4F8443079E1A7
S31508001C1040F25013C2F200031B78012B40F090816A
S31508001C20C939352900F26B81DFE811F0DB0069015B
S31508001C3069016501690169015901FC0042012F0129
S31508001C406901690169016901690169016901690136
S31508001C506901690169016901690169016901690126
S31508001C606901690169016901690169016901690116
S31508001C706901690169016901690169016901690106
S31508001C807F00540036007300690169016901A100EB
S31508001C906901B900BD00CE004578FFF743FF01385A
S31508001CA0854203DD2220FFF765FF2BE140F2501540
S31508001CB0C2F20005281DA96C627800F0A3F9FF237B
S31508001CC0EB706278AB6C1344AB6463780133A5F8A8
S31508001CD0443017E14578FFF725FF0138854203DDD3
S31508001CE02220FFF747FF0DE1616840F25015C2F266
S31508001CF00005A964281D627800F084F9FF23EB70BB
S31508001D006278AB6C1344AB6463780133A5F844304E
S31508001D10F8E040F25013C2F20003FF22DA7042687C
S31508001D209A640122A3F84420ECE040F25013C2F270
S31508001D300003FF22DA709B6C406840B11844002209
S31508001D4013F8011B0A44D2B28342F9D100E00022FB
S31508001D5040F25013C2F20003C3F8072001221A7199
S31508001D6000225A719A710822A3F84420CAE040F268
S31508001D705013C2F20003FF22DA7042F67032C0F640
S31508001D8000029A6400221A715A719A710721D97150
S31508001D901A725A729A720822A3F84420B2E00020F6
S31508001DA0FFF7E8FEAEE040F25013C2F20003FF224E
S31508001DB0DA7000221A71597859719A71DA711A72A1
S31508001DC00622A3F844209DE040F25013C2F2000315
S31508001DD000221A705A70FF22DA700122A3F84420F2
S31508001DE090E040F25013C2F200039D6CFFF79AFE92
S31508001DF0411E2846621C00F051FB18B93120FFF736
S31508001E00B9FE7FE040F25014C2F20004FF23E370EB
S31508001E10A56CFFF787FE013D2844A0640123A4F8BA
S31508001E2044306FE04578FFF77DFE0238854203DDD2
S31508001E302220FFF79FFE65E040F25013C2F200032E
S31508001E40FF22DA700122A3F84420617839B900F03C
S31508001E5031FB002856D13120FFF78CFE52E040F2C4
S31508001E605013C2F20003986CA21C00F017FB18B9B5
S31508001E703120FFF77FFE45E040F25013C2F200031F
S31508001E8061789A6C0A449A643CE040F25014C2F2B3
S31508001E900004FF23E370002525716571FFF742FEF4
S31508001EA0A071E571257265720723A4F8443029E00C
S31508001EB040F25013C2F20003986C616800F0F2FA1F
S31508001EC018B93120FFF756FE1CE040F25013C2F253
S31508001ED00003FF22DA700122A3F8442012E000F082
S31508001EE075F840F25013C2F20003FF22DA7001229D
S31508001EF0A3F8442006E03120FFF73CFE02E020204C
S31508001F00FFF738FE40F25013C2F2000393F843304D
S31508001F10012B02D11020FFF72DFE40F25013C2F21A
S31508001F200003B3F844100BB2002B09DD40F2501041
S31508001F30C2F20000012380F843300330FFF7E4FDC6
S31508001F4038BD00BF08B5FFF711FE012819D040F2C9
S31508001F509C13C2F200031B78012B12D100F0E2FA9F
S31508001F6040F2A013C2F200031B6803F5FA63984215
S31508001F7007D340F29C13C2F2000300221A7000F045
S31508001F8025F808BD08B540F29C13C2F200030122E9
S31508001F901A7000F0C7FA40F2A013C2F200031860E4
S31508001FA0FFF7D0FF08BD00BF704700BF704700BFEE
S31508001FB008B540F2A413C2F20003186040F2A81351
S31508001FC0C2F200031960FFF7F1FFFCE708B500F05D
S31508001FD06DFAA8B1FEF7F4F890B1FFF791FD00F09D
S31508001FE087FA00F02DFD20F0604020F07F024EF6C3
S31508001FF00853CEF200031A6000F022FD43689847A2
S3150800200008BD00BF70B5561EB6B24AB14C1E0E4486
S31508002010451A14F8013F2B55FFF7C8FFB442F8D10B
S3150800202070BD00BF30B492B14B1C0331541EE4B2EC
S3150800203001EB44040021020F092A94BF30323732DB
S3150800204003F8012C000103F8021BA342F3D130BCAC
S31508002050704700BF38B504460D46012807D942F631
S315080020607830C0F6000040F2FD11FFF7A1FF40F2FC
S31508002070F013C2F2000304EB440203EBC2035A7CDA
S315080020801B7C9A4220D040F2F013C2F2000304EB04
S31508002090440203EBC203DA681570597C013159749E
S315080020A0DA680132DA605B689A420FD940F2F013B7
S315080020B0C2F200036200111953F83110144403EBFD
S315080020C0C403D960012038BD002038BD012038BDC1
S315080020D038B504460D46012807D942F67830C0F6C9
S315080020E0000040F21F21FFF763FF40F2F013C2F22F
S315080020F0000304EB440203EBC2035B7CFBB140F232
S31508002100F013C2F2000303EBC2039A6812782A702E
S31508002110597C013959749A6801329A605B689A4207
S315080021200FD940F2F013C2F200036200111953F8F6
S315080021303110144403EBC4039960012038BD002014
S3150800214038BD012038BD00BF10B540F2F013C2F209
S3150800215000030020987403F118025A61012183F8DC
S315080021602A10D86240F2EC11C2F200010A6040213E
S31508002170197440F2A821C2F200014C1C9C60DC6074
S3150800218058741C6001F140045C6008705AB340F250
S31508002190EC11C2F20001D86A0860402183F82810C1
S315080021A040F22021C2F20001481C1862586200243D
S315080021B083F82940986101F140035360927C0A70C4
S315080021C040F2A823C2F200031B78FF2B01D0FF2A96
S315080021D006D142F67830C0F600007F21FFF7E8FE08
S315080021E0FFF738F910BD40F22023C2F20003FF22A0
S315080021F01A70EEE708B50020FDF7AAFF08BD00BF74
S315080022002DE9F84307460C463F2906D942F67830A9
S31508002210C0F600009E21FFF7CBFE40F2A823C2F2CB
S31508002220000318782146FFF715FF012806D042F665
S315080022307830C0F60000A221FFF7BAFE2646D4B1D0
S31508002240002440F2A825C2F2000542F67838C0F606
S3150800225000084FF0AB09FFF7A9FE2878395DFFF7AC
S31508002260F9FE012803D040464946FFF7A1FE01348E
S31508002270A3B2B342EFD3BDE8F88300BF10B5044656
S31508002280FEF7B0F940F2A423C2F200031B7803BBA1
S3150800229040F22023C2F20003187840F26421C2F209
S315080022A00001FFF715FF01283ED140F26423C2F270
S315080022B000031B78002B39D040F2A423C2F2000396
S315080022C001221A7040F22C33C2F200030020187063
S315080022D010BD40F22023C2F2000340F22C32C2F2B3
S315080022E0000211781878144B1944FFF7F1FE0128FB
S315080022F01ED140F22C33C2F200031A780132D2B250
S315080023001A7040F26423C2F200031B78934211D17B
S3150800231020460949FFF776FE40F2A423C2F20003DD
S3150800232000221A70012010BD002010BD002010BD2B
S31508002330002010BD002010BD650200202DE9F043E5
S3150800234083B040F2A823C2F200031C78012C07D9F7
S3150800235042F67830C0F6000040F23F21FFF728FE2B
S3150800236040F2F013C2F2000304EB440403EBC40387
S315080023705B7C002B3BD0402B34BF99464FF040097D
S31508002380B9F1000F23D040F2AC13C2F200035C1E71
S3150800239009F1FF36F6B21E4440F2A825C2F200053E
S315080023A042F67837C0F600074FF4A77828780DF17B
S315080023B00701FFF78DFE012803D038464146FFF78F
S315080023C0F7FD9DF8073004F8013FB442EED140F21C
S315080023D0AC10C2F200004FF480714A46FFF7CAF902
S315080023E001204946FFF7E0FA0120FFF73BFA03B060
S315080023F0BDE8F0832DE9F041012040F2EC21C2F25C
S315080024000001FFF733FB80B2F0B140F2EC23C2F2D1
S3150800241000035C1E013886B21E4440F22025C2F233
S31508002420000542F67837C0F6000740F27318287898
S3150800243014F8011FFFF70EFE012803D0384641465F
S31508002440FFF7B6FDB442F2D10120FFF71DFABDE849
S31508002450F08100BF38B54FF2E873C1F6FF731B6809
S315080024604FF2EC72C1F6FF7214684FF2F072C1F6C1
S31508002470FF721268D0180AD0054D29460822FFF7C0
S31508002480D1FD204605F110010422FFF7CBFD38BD2A
S315080024909A00002008B500F057F908BD08B500F005
S315080024A061F908BD08B500F085F908BD08B500F062
S315080024B06DFA08BD08B500F03DFA10B100F09AFAB9
S315080024C008BD002008BD00BF4EF21003CEF200037F
S315080024D000221A6041F63F11C0F2010159609A6064
S315080024E00521196040F23033C2F200031A607047C2
S315080024F04EF21003CEF2000300221A60704700BFA6
S315080025004EF21003CEF200031B6813F4803F1FBF80
S3150800251040F23033C2F200031A68013218BF1A605B
S31508002520704700BF08B5FFF7EBFF40F23033C2F241
S315080025300003186808BD00BF4FF40053C4F2020335
S315080025401A6942F080021A61704700BFF8B507465B
S315080025500024254642F69C36C0F60006FFF726FDFF
S31508002560A359BB420ED8311949680B449F4209D278
S3150800257042F69C33C0F6000305EB450203EB8203E3
S31508002580187AF8BD01350C34A82CE7D1FF20F8BD20
S315080025902DE9F84380460068FFF7D8FFFF285CD08E
S315080025A04FF40053C4F2020340F22312C4F26752F6
S315080025B05A6048F6AB12CCF6EF525A603422DA600B
S315080025C0DB6813F0010F04D0FFF7B6FF0020BDE863
S315080025D0F8834FF40053C4F202031A6942F0010269
S315080025E01A61002508F104094FF40054C4F20204E4
S315080025F0D8F80030EF1859F80560B2B2EA52E36825
S3150800260013F0010F05D0FFF7D1FCE36813F0010FB3
S31508002610F9D1330C7B80E36813F0010F05D0FFF77F
S31508002620C5FCE36813F0010FF9D13B68B34204D146
S315080026300435B5F5007FDBD101E0002400E0012474
S315080026404FF40053C4F202031A6922F001021A6118
S31508002650FFF772FF2046BDE8F8830020BDE8F8833F
S3150800266038B504460D4640F23433C2F200039842A8
S3150800267009D04FF48043C0F6000399420BD0FFF708
S3150800268087FF20B917E040F23854C2F20004C5F3B8
S31508002690080393B903E040F23434C2F20004236815
S315080026A09D420CD0204640F8045B29464FF4007240
S315080026B0FFF7A8FC03E0002038BD002038BD2046FF
S315080026C038BD00BF2DE9F04106460C4617461D46A3
S315080026D04FEA51284FEA48280368B3F1FF3F06D16D
S315080026E040F8048B41464FF40072FFF78BFC3368C1
S315080026F0434505D030464146FFF7B2FF0646D0B1FE
S315080027003368E41A3444043408F50078FFF74EFCBD
S31508002710331DE31AB3F5007F06D330464146FFF76B
S315080027209FFF064650B1041D17F8013B04F8013B0C
S31508002730013DEBD105E00020BDE8F0810020BDE8B1
S31508002740F0810120BDE8F08140F23853C2F200035F
S315080027504FF0FF321A6040F23433C2F200031A60B7
S31508002760704700BF70B504460D461646FFF7EEFEE5
S31508002770FF281BD0681E2044FFF7E8FEFF2817D065
S31508002780620A4FF48043C0F60003B3EB422F07BF3B
S3150800279040F23430C2F2000040F23850C2F2000073
S315080027A0214632462B46FFF78DFF70BD002070BDCF
S315080027B0002070BD2DE9F84304460E46FFF7C6FE15
S315080027C00546701E2044FFF7C1FE0446FF2D18BFBC
S315080027D0FF2800F0AB80854200F29F80012D40F271
S315080027E09F800F2800F29F804FF40053C4F2020323
S315080027F040F22312C4F267525A6048F6AB12CCF67E
S31508002800EF525A603422DA60DB6813F0010F04D005
S31508002810FFF792FE0020BDE8F8834FF40053C4F298
S3150800282002031A6942F002021A6142F69C39C0F69E
S3150800283000094F460026FFF7B9FB3B7AAB4208D1A1
S3150800284042F69C33C0F6000306EB460253F82270A4
S3150800285005E001360C370E2EEDD14FF0FF37C8468E
S315080028600025FFF7A3FB98F80830A34208D142F6E3
S315080028709C33C0F6000305EB450253F8228006E0B8
S31508002880013508F10C080E2DEBD14FF0FF384E46F6
S315080028900025FFF78BFB337AA34209D142F69C3316
S315080028A0C0F6000305EB450203EB82035A6804E011
S315080028B001350C360E2DECD10022C7EB0803134464
S315080028C0C3F38F23E3B1013B9EB20136B60200255E
S315080028D04FF40054C4F20204EB196361236943F010
S315080028E040032361E36813F0010F05D0FFF75EFB91
S315080028F0E36813F0010FF9D105F58065B542EBD110
S315080029004FF40053C4F202031A6922F002021A6154
S31508002910FFF712FE0120BDE8F8830020BDE8F88322
S315080029200020BDE8F8830020BDE8F8830020BDE854
S31508002930F88300BF00B583B040F23433C2F2000317
S315080029401B68B3F1FF3F08BF01201CD040F23433A7
S31508002950C2F2000399685A681144DA6811441A6980
S3150800296011445A6911449A690A44D96953185B4251
S3150800297002AA42F8043D44F25010C0F600000421B1
S31508002980FFF7F0FEFFE703B05DF804FB44F204022C
S31508002990C0F600024FF48043C0F6000310681B68B7
S315080029A0184444F20803C0F600031B68184444F2AE
S315080029B00C03C0F600031B68184444F21003C0F663
S315080029C000031B68184444F21403C0F600031B688E
S315080029D0184444F21803C0F600031B68184444F26E
S315080029E05013C0F600031B681844D0F1010038BF25
S315080029F00020704708B540F23433C2F200031B6862
S31508002A00B3F1FF3F06D040F23430C2F20000FFF7C0
S31508002A10BFFD88B140F23853C2F200031B68B3F118
S31508002A20FF3F0BD040F23850C2F20000FFF7B0FD6E
S31508002A30003018BF012008BD002008BD012008BDD0
S31508002A404FF48040C0F60000704700BF08B542F654
S31508002A504440C0F600003621FFF7AAFA08BD00BFB9
S31508002A6010B572B640F20002C2F2000240F201133B
S31508002A70C2F200039A4210D2131D0E4CE41A24F037
S31508002A80030404340023104642F67041C0F60001E0
S31508002A905A581A500433A342FAD1074807494FF047
S31508002AA000028842B8BF40F8042BFADBFDF79CFB0E
S31508002AB010BD00BF04010020040100207A07002091
S31508002AC06D61696E2E63000012011001000000405E
S31508002AD0501DAC6000010102030100000403090453
S31508002AE02603570069006E00550053004200200077
S31508002AF0420075006C006B002000440065007600FB
S31508002B00690063006500000009022000010100C099
S31508002B10320904000002FF00000407058102400094
S31508002B2000070501024000001A034F007000650007
S31508002B306E0042004C0054002000550073006500EA
S31508002B40720000002C03570069006E005500530000
S31508002B5042002000420075006C006B00200049000E
S31508002B606E0074006500720066006100630065000F
S31508002B704F70656E424C54002E2E2F2E2E2F2E2E61
S31508002B802F536F757263652F41524D434D335F5313
S31508002B90544D33322F7573622E63000000400008CF
S31508002BA0002000000200000000600008002000006D
S31508002BB00300000000800008002000000400000058
S31508002BC000A00008002000000500000000C0000862
S31508002BD0002000000600000000E0000800200000B9
S31508002BE0070000000000010800200000080000009F
S31508002BF0002001080020000009000000004001082C
S31508002C00002000000A000000006001080020000003
S31508002C100B00000000800108002000000C000000E6
S31508002C2000A00108002000000D00000000C00108F7
S31508002C30002000000E00000000E00108002000004F
S31508002C400F0000002E2E2F2E2E2F2E2E2F536F758F
S31508002C507263652F41524D434D335F53544D3332A2
S31508002C602F4743432F766563746F72732E63000094
S31508002C70082B000820000000B1040008D904000849
S31508002C80490400084D040008510400089D04000882
S31508002C90A10400088D0500089D050008AD0500087B
S31508002CA00000000040000000511400081D04000840
S31508002CB05114000851140008511400085114000852
S31508002CC05114000851140008390400081A2B00088A
S31508002CD009000000C82A000812000000DC2A0008C3
S31508002CE004000000282B00081A000000E02A00084B
S31508002CF026000000980000201C000000442B000855
S31508002D002C000000030100001C035300450052007C
S31508002D103100320033003400350036003700380001
S31508002D2039003000F5030008511400085114000852
S31508002D3051140008511400085114000851140008D1
S31508002D40FD03000851140008511400085114000826
S31508002D50511400085114000851140008020406080A
S31508002D600000000001020304010203040607080923
S30608002D700450
S70508000000F2
