S028000062696E2F6F70656E62746C5F6F6C696D65785F6F6C696D6578696E6F5F63616E2E73726563EF
S31508000000C0060020911400087D1400087D1400081D
S315080000107D1400087D1400087D1400087D1400086E
S315080000207D1400087D1400087D1400087D1400085E
S315080000307D1400087D1400087D1400087D1400084E
S315080000407D1400087D1400087D1400087D1400083E
S315080000507D1400087D1400087D1400087D1400082E
S315080000607D1400087D1400087D1400087D1400081E
S315080000707D1400087D1400087D1400087D1400080E
S315080000807D1400087D1400087D1400087D140008FE
S315080000907D1400087D1400087D1400087D140008EE
S315080000A07D1400087D1400087D1400087D140008DE
S315080000B07D1400087D1400087D1400087D140008CE
S315080000C07D1400087D1400087D1400087D140008BE
S315080000D07D1400087D1400087D1400087D140008AE
S315080000E07D1400087D1400087D1400087D1400089E
S315080000F07D1400087D1400087D1400087D1400088E
S315080001007D1400087D1400087D1400087D1400087D
S315080001107D1400087D1400087D1400087D1400086D
S315080001207D1400087D1400087D1400087D1400085D
S315080001307D1400087D1400087D1400087D1400084D
S315080001407D1400087D1400087D1400087D1400083D
S3150800015008B54FF40060C4F20100012100F082F9ED
S3150800016040B14FF40060C4F20100202100F082F98A
S31508000170012008BD002008BD80B588B00023009383
S3150800018001934FF48053C4F202031A6842F0010245
S315080001901A6059680022CFF6FF020A405A601A68A8
S315080001A022F0847222F480321A601A6822F48022BD
S315080001B01A605A6822F4FE025A604FF41F029A60C7
S315080001C01A6842F480321A604FF48053C4F202036C
S315080001D040F2DC52196801F40031019100990131AD
S315080001E00091019911B900999142F3D14FF48053C6
S315080001F0C4F202031B6813F4003F06D141F2F04033
S31508000200C0F60000732100F0D7FC4FF40053C4F287
S3150800021002031A6842F010021A601A6822F00302F2
S315080002201A601A6842F002021A604FF48053C4F248
S3150800023002035A685A605A6842F400525A605A6869
S3150800024042F480625A605A6822F47C125A605A68EC
S3150800025042F4E8125A601A6842F080721A604FF443
S315080002608053C4F202031A6812F0007FFBD04FF4E1
S315080002708053C4F202035A6822F003025A605A688D
S3150800028042F002025A604FF48053C4F202035A68DD
S3150800029002F00C02082AFAD14FF48052C4F2020284
S315080002A0936943F0090393614FF44063C4F2010371
S315080002B0596821F00F015960596841F008015960E1
S315080002C0596821F0F0015960596841F0B001596048
S315080002D00023C4F20103596821F4C04159605968E2
S315080002E041F480415960D36943F00073D361042017
S315080002F0012100F037F903278DF80A7048238DF895
S315080003000B30012508AE26F8185D4FF40064C4F2D8
S3150800031001042046314600F053F84FF400302946D0
S3150800032000F032F90520294600F01CF918238DF84B
S315080003300F304FF00408ADF80C808DF80E7020468B
S3150800034003A900F03DF88DF80F800823ADF80C30AE
S31508000350204603A900F034F84FF4614304930023C0
S31508000360ADF81430ADF81630ADF81830ADF81C30CD
S315080003700C23ADF81A304FF48849C4F200094846F0
S3150800038004A900F013F94846294600F079F94046D1
S31508000390294600F0E7F88DF80A7010238DF80B301F
S315080003A02025ADF808502046314600F009F82046C9
S315080003B0294600F05DF800F071F900F07BF9FCE7DA
S315080003C02DE9F001CB7803F00F0513F0100F1CBFD1
S315080003D08B781D430B78F3B10768002301264FF08D
S315080003E00F0C06FA03F20C88144094420FD19A00B7
S315080003F00CFA02F827EA080705FA02F21743CA7840
S31508000400282A08BF446102D0482A08BF046101337C
S31508000410082BE6D107600B88FF2B20D947680023F5
S3150800042001264FF00F0C03F1080206FA02F20C88B7
S31508000430144094420FD19A000CFA02F827EA0807EA
S3150800044005FA02F21743CA78282A08BF4461CA780F
S31508000450482A08BF04610133082BE4D14760BDE888
S31508000460F0017047836819420CBF002001207047CD
S31508000470016170474161704710B44FF48053C4F26C
S3150800048002035B6803F00C03042B08D0082B0CD07E
S315080004909BBB4FF49053C0F27A03036032E04FF4EB
S315080004A09053C0F27A0303602CE04FF48053C4F2F1
S315080004B002035A685B68C2F38342023213F4803F30
S315080004C007D14FF41063C0F23D0303FB02F202604A
S315080004D018E04FF48053C4F202035B6813F4003F3C
S315080004E019BF4FF41063C0F23D034FF49053C0F2A6
S315080004F07A0303FB02F2026004E04FF49053C0F261
S315080005007A0303604FF48053C4F202035968C1F3B7
S31508000510031140F20402C2F20002515CC9B2046837
S3150800052024FA01F141605C68C4F30224145DE4B264
S3150800053021FA04F484605C68C4F3C224125DD2B262
S31508000540D140C1605A68C2F3813240F20003C2F258
S3150800055000039B5CDBB2B1FBF3F101615DF8044B70
S31508000560704700BF39B14FF48053C4F202039A6949
S315080005701043986170474FF48053C4F202039A6996
S3150800058022EA00009861704739B14FF48053C4F2EB
S315080005900203DA691043D86170474FF48053C4F2F6
S315080005A00203DA6922EA0000D861704730B587B0DD
S315080005B004460D46038A23F440531B041B0CCA88C1
S315080005C01343038283890989AA880A4369890A43E6
S315080005D023F4B05323F00C031B041B0C13439BB2E8
S315080005E08381838A23F440731B041B0CAA89134353
S315080005F0838201A8FFF740FF4FF46053C4F201035A
S315080006009C420CBF049A039AA3891BB2002B02EBE7
S31508000610820202EB8202BDBF2B685B00B2FBF3F2DB
S315080006202968A4BF8900B2FBF1F248F21F53C5F24C
S31508000630EB13A3FB02135B091D01642003FB1023C4
S31508000640A08900B200280BDADB00323348F21F51CA
S31508000650C5F2EB11A1FB0321C1F3421129430AE0BC
S315080006601B01323348F21F51C5F2EB11A1FB0321DE
S31508000670C1F34311294389B2218107B030BD00BFB8
S3150800068029B183899BB243F40053838170478389D8
S3150800069023F400531B041B0C8381704708B500F034
S315080006A087FA00F029FC00F00DFC00F00DF800F0C8
S315080006B06DFA08BD08B500F07DFA00F039FC00F0C7
S315080006C00FF800F043FA08BD08B500F063F800F02B
S315080006D0ADFA40F21403C2F2000301221A7008BDF3
S315080006E008B540F21800C2F2000000F0A7FB012886
S315080006F00BD140F21403C2F2000301221A7040F231
S315080007001800C2F2000000F065F808BD704700BF87
S3150800071008B540F21403C2F200031B78012B02D17C
S31508000720C9B200F037FB00F04DF808BD40F21403DB
S31508000730C2F200031878022806D0032806D001283A
S315080007400CBF0820402070473F20704700207047A4
S3150800075040F21403C2F200031878022806D00328D0
S3150800076006D001280CBF0820402070473F2070475C
S315080007700020704708B500F01BF808BD40F2580382
S31508000780C2F20003FE22DA7018710222A3F844208E
S31508000790704700BF40F25803C2F2000300221A70E5
S315080007A09A6483F84320A3F844209A705A707047D5
S315080007B040F25803C2F200031878003018BF01202F
S315080007C0704700BF40F25803C2F20003002283F8C4
S315080007D04320704738B504460178FF291CD140F2FA
S315080007E05804C2F200040023637001252570FF2215
S315080007F0E270102222716371FFF798FFA071FFF76C
S31508000800A7FFE071FFF7A4FF000A20726572A572C0
S315080008100823A4F8443079E140F25803C2F20003F1
S315080008201B78012B40F09081C939352900F26B817C
S31508000830DFE811F0DB0069016901650169016901F9
S315080008405901FC0042012F01690169016901690129
S31508000850690169016901690169016901690169013A
S31508000860690169016901690169016901690169012A
S31508000870690169016901690169016901690169011A
S3150800088069016901690169017F0054003600730036
S31508000890690169016901A1006901B900BD00CE00BD
S315080008A04578FFF743FF0138854203DD2220FFF72D
S315080008B065FF2BE140F25805C2F20005281DA96C18
S315080008C0627800F0A3F9FF23EB706278AB6C1344EF
S315080008D0AB6463780133A5F8443017E14578FFF730
S315080008E025FF0138854203DD2220FFF747FF0DE18A
S315080008F0616840F25805C2F20005A964281D6278AD
S3150800090000F084F9FF23EB706278AB6C1344AB6498
S3150800091063780133A5F84430F8E040F25803C2F290
S315080009200003FF22DA7042689A640122A3F8442081
S31508000930ECE040F25803C2F20003FF22DA709B6C27
S31508000940406840B11844002213F8011B0A44D2B289
S315080009508342F9D100E0002240F25803C2F20003B4
S31508000960C3F8072001221A7100225A719A710822C7
S31508000970A3F84420CAE040F25803C2F20003FF225B
S31508000980DA7041F2F842C0F600029A6400221A713F
S315080009905A719A710721D9711A725A729A72082273
S315080009A0A3F84420B2E00020FFF7E8FEAEE040F2EC
S315080009B05803C2F20003FF22DA7000221A7159782E
S315080009C059719A71DA711A720622A3F844209DE0C9
S315080009D040F25803C2F2000300221A705A70FF222E
S315080009E0DA700122A3F8442090E040F25803C2F2DC
S315080009F000039D6CFFF79AFE411E2846621C00F014
S31508000A0065FA18B93120FFF7B9FE7FE040F25804BD
S31508000A10C2F20004FF23E370A56CFFF787FE013DD1
S31508000A202844A0640123A4F844306FE04578FFF712
S31508000A307DFE0238854203DD2220FFF79FFE65E032
S31508000A4040F25803C2F20003FF22DA700122A3F82B
S31508000A504420617839B900F045FA002856D131208A
S31508000A60FFF78CFE52E040F25803C2F20003986C7E
S31508000A70A21C00F02BFA18B93120FFF77FFE45E0DB
S31508000A8040F25803C2F2000361789A6C0A449A64E9
S31508000A903CE040F25804C2F20004FF23E37000254C
S31508000AA025716571FFF742FEA071E57125726572C1
S31508000AB00723A4F8443029E040F25803C2F20003A1
S31508000AC0986C616800F006FA18B93120FFF756FEEF
S31508000AD01CE040F25803C2F20003FF22DA7001223A
S31508000AE0A3F8442012E000F075F840F25803C2F269
S31508000AF00003FF22DA700122A3F8442006E0312021
S31508000B00FFF73CFE02E02020FFF738FE40F25803CC
S31508000B10C2F2000393F84330012B02D11020FFF7ED
S31508000B202DFE40F25803C2F20003B3F844100BB28C
S31508000B30002B09DD40F25800C2F20000012380F8BC
S31508000B4043300330FFF7E4FD38BD00BF08B5FFF7B3
S31508000B5011FE012819D040F2A403C2F200031B7843
S31508000B60012B12D100F0F6F940F2A803C2F20003F5
S31508000B701B6803F5FA73984207D340F2A403C2F23E
S31508000B80000300221A7000F025F808BD08B540F2E7
S31508000B90A403C2F2000301221A7000F0DBF940F246
S31508000BA0A803C2F200031860FFF7D0FF08BD00BF14
S31508000BB0704700BF704700BF08B540F2AC03C2F2E9
S31508000BC00003186040F2B003C2F200031960FFF791
S31508000BD0F1FFFCE708B500F081F9A8B1FFF7B8FA0C
S31508000BE090B1FFF793FD00F09BF900F041FC20F06F
S31508000BF0604020F07F024EF60853CEF200031A60DA
S31508000C0000F036FC4368984708BD00BF70B5561E0D
S31508000C10B6B24AB14C1E0E44451A14F8013F2B557C
S31508000C20FFF7C8FFB442F8D170BD00BF2DE9F04701
S31508000C30002341F22450C0F600004FF4FA7448F637
S31508000C40A04113F80080C21892F801C008EB0C0204
S31508000C5002FB044291FBF2F902FB191636B94D461E
S31508000C6009F1FF3292B2B2F5806F03D30233242B17
S31508000C70E7D187E04746E2464FF4C843C4F200038B
S31508000C8000225A611A6842F400421A601B6813F47B
S31508000C90004F09D04FF4C844C4F20004FFF78AFF96
S31508000CA0236813F4004FF9D14FF4C843C4F2000384
S31508000CB01A6822F002021A601A6842F001021A60E3
S31508000CC05B6813F0010F09D14FF4C844C4F200045D
S31508000CD0FFF770FF636813F0010FF9D0013F0AF1BF
S31508000CE0FF36360546EA0747013D3D434FF4C843FC
S31508000CF0C4F20003DD611A6822F001021A605B681B
S31508000D0013F0010F09D04FF4C844C4F20004FFF7EA
S31508000D1051FF636813F0010FF9D14FF4C843C4F2C9
S31508000D200003D3F8002242F00102C3F80022D3F8E8
S31508000D301C2222F00102C3F81C22D3F80C2242F02E
S31508000D400102C3F80C220022C3F84022C3F8442249
S31508000D50D3F8042222F00102C3F80422D3F814229D
S31508000D6022F00102C3F81422D3F81C2242F0010231
S31508000D70C3F81C22D3F8002222F00102C3F800228D
S31508000D80BDE8F08741F20050C0F60000E621FFF703
S31508000D9013FF71E738B504460D464FF4C843C4F24D
S31508000DA000039B6813F0806F07D141F20050C0F62C
S31508000DB0000040F22511FFF7FFFE4FF4C843C4F2C6
S31508000DC00003D3F8802102F00102C3F88021D3F88A
S31508000DD0802142F07C4242F40012C3F88021C3F815
S31508000DE08451E178A278120442EA016221780A4322
S31508000DF0617842EA0122C3F88821E179A2791204CE
S31508000E0042EA016221790A43617942EA0122C3F87A
S31508000E108C21D3F8802142F00102C3F880219B6817
S31508000E2013F0806F09D14FF4C844C4F20004FFF7E9
S31508000E30C1FEA36813F0806FF9D038BD4FF4C843DC
S31508000E40C4F20003DB6813F0030F39D04FF4C8432C
S31508000E50C4F20003D3F8B02140F26763B3EB525FE4
S31508000E6018BF002023D14FF4C843C4F20003D3F8B7
S31508000E70B8210270D3F8B821120A4270D3F8B82103
S31508000E80120C8270D3F8B821120EC270D3F8BC21A6
S31508000E900271D3F8BC21120A4271D3F8BC21120C94
S31508000EA08271D3F8BC311B0EC3710120FFE74FF4E2
S31508000EB0C843C4F20003DA6842F02002DA607047D9
S31508000EC00020704708B500F057F908BD08B500F0CE
S31508000ED061F908BD08B500F085F908BD08B500F048
S31508000EE06DFA08BD08B500F03DFA10B100F09AFA9F
S31508000EF008BD002008BD00BF4EF21003CEF2000365
S31508000F0000221A6041F63F11C0F2010159609A6049
S31508000F100521196040F2B403C2F200031A60704753
S31508000F204EF21003CEF2000300221A60704700BF8B
S31508000F304EF21003CEF200031B6813F4803F1FBF66
S31508000F4040F2B403C2F200031A68013218BF1A60ED
S31508000F50704700BF08B5FFF7EBFF40F2B403C2F2D3
S31508000F600003186808BD00BF4FF40053C4F202031B
S31508000F701A6942F080021A61704700BFF8B5074641
S31508000F800024254641F24856C0F60006FFF712FE31
S31508000F90A359BB420ED8311949680B449F4209D25E
S31508000FA041F24853C0F6000305EB450203EB820302
S31508000FB0187AF8BD01350C34A82CE7D1FF20F8BD06
S31508000FC02DE9F84380460068FFF7D8FFFF285CD074
S31508000FD04FF40053C4F2020340F22312C4F26752DC
S31508000FE05A6048F6AB12CCF6EF525A603422DA60F1
S31508000FF0DB6813F0010F04D0FFF7B6FF0020BDE849
S31508001000F8834FF40053C4F202031A6942F001024E
S315080010101A61002508F104094FF40054C4F20204C9
S31508001020D8F80030EF1859F80560B2B2EA52E3680A
S3150800103013F0010F05D0FFF7BDFDE36813F0010FAC
S31508001040F9D1330C7B80E36813F0010F05D0FFF765
S31508001050B1FDE36813F0010FF9D13B68B34204D13F
S315080010600435B5F5007FDBD101E0002400E001245A
S315080010704FF40053C4F202031A6922F001021A61FE
S31508001080FFF772FF2046BDE8F8830020BDE8F88325
S3150800109038B504460D4640F2B803C2F2000398423A
S315080010A009D04FF48043C0F6000399420BD0FFF7EE
S315080010B087FF20B917E040F2BC24C2F20004C5F34A
S315080010C0080393B903E040F2B804C2F200042368A7
S315080010D09D420CD0204640F8045B29464FF4007226
S315080010E0FFF794FD03E0002038BD002038BD2046F8
S315080010F038BD00BF2DE9F04106460C4617461D4689
S315080011004FEA51284FEA48280368B3F1FF3F06D152
S3150800111040F8048B41464FF40072FFF777FD3368B9
S31508001120434505D030464146FFF7B2FF0646D0B1E3
S315080011303368E41A3444043408F50078FFF73AFDB6
S31508001140331DE31AB3F5007F06D330464146FFF751
S315080011509FFF064650B1041D17F8013B04F8013BF2
S31508001160013DEBD105E00020BDE8F0810020BDE897
S31508001170F0810120BDE8F08140F2BC23C2F20003F1
S315080011804FF0FF321A6040F2B803C2F200031A6049
S31508001190704700BF70B504460D461646FFF7EEFECB
S315080011A0FF281BD0681E2044FFF7E8FEFF2817D04B
S315080011B0620A4FF48043C0F60003B3EB422F07BF21
S315080011C040F2B800C2F2000040F2BC20C2F20000B1
S315080011D0214632462B46FFF78DFF70BD002070BDB5
S315080011E0002070BD2DE9F84304460E46FFF7C6FEFB
S315080011F00546701E2044FFF7C1FE0446FF2D18BFA2
S31508001200FF2800F0AB80854200F29F80012D40F256
S315080012109F800F2800F29F804FF40053C4F2020308
S3150800122040F22312C4F267525A6048F6AB12CCF663
S31508001230EF525A603422DA60DB6813F0010F04D0EB
S31508001240FFF792FE0020BDE8F8834FF40053C4F27E
S3150800125002031A6942F002021A6141F24859C0F6BD
S3150800126000094F460026FFF7A5FC3B7AAB4208D19A
S3150800127041F24853C0F6000306EB460253F82270C3
S3150800128005E001360C370E2EEDD14FF0FF37C84674
S315080012900025FFF78FFC98F80830A34208D141F2E1
S315080012A04853C0F6000305EB450253F8228006E0D2
S315080012B0013508F10C080E2DEBD14FF0FF384E46DC
S315080012C00025FFF777FC337AA34209D141F2485348
S315080012D0C0F6000305EB450203EB82035A6804E0F7
S315080012E001350C360E2DECD10022C7EB080313444A
S315080012F0C3F38F23E3B1013B9EB20136B602002544
S315080013004FF40054C4F20204EB196361236943F0F5
S3150800131040032361E36813F0010F05D0FFF74AFC89
S31508001320E36813F0010FF9D105F58065B542EBD1F5
S315080013304FF40053C4F202031A6922F002021A613A
S31508001340FFF712FE0120BDE8F8830020BDE8F88308
S315080013500020BDE8F8830020BDE8F8830020BDE83A
S31508001360F88300BF00B583B040F2B803C2F20003A9
S315080013701B68B3F1FF3F08BF01201CD040F2B80339
S31508001380C2F2000399685A681144DA6811441A6966
S3150800139011445A6911449A690A44D96953185B4237
S315080013A002AA42F8043D44F25010C0F60000042197
S315080013B0FFF7F0FEFFE703B05DF804FB44F2040212
S315080013C0C0F600024FF48043C0F6000310681B689D
S315080013D0184444F20803C0F600031B68184444F294
S315080013E00C03C0F600031B68184444F21003C0F649
S315080013F000031B68184444F21403C0F600031B6874
S31508001400184444F21803C0F600031B68184444F253
S315080014105013C0F600031B681844D0F1010038BF0A
S315080014200020704708B540F2B803C2F200031B68F3
S31508001430B3F1FF3F06D040F2B800C2F20000FFF752
S31508001440BFFD88B140F2BC23C2F200031B68B3F1AA
S31508001450FF3F0BD040F2BC20C2F20000FFF7B0FD00
S31508001460003018BF012008BD002008BD012008BDB6
S315080014704FF48040C0F60000704700BF08B541F23F
S31508001480F050C0F600003621FFF796FB08BD00BFF6
S3150800149010B572B640F20002C2F2000240F215031D
S315080014A0C2F200039A4210D2131D0E4CE41A24F01D
S315080014B0030404340023104641F21C61C0F60001FF
S315080014C05A581A500433A342FAD1074807494FF02D
S315080014D000028842B8BF40F8042BFADBFEF74CFE40
S315080014E010BD00BF1800002018000020C00400200E
S315080014F06D61696E2E6300004F70656E424C540034
S315080015002E2E2F2E2E2F2E2E2F536F757263652F8C
S3150800151041524D434D335F53544D33322F63616E01
S315080015202E630000050206020603070308030903E3
S3150800153009040A040B040C040C050D050E050F0519
S315080015400F061006100710080040000800200000CB
S3150800155002000000006000080020000003000000F0
S3150800156000800008002000000400000000A0000819
S31508001570002000000500000000C000080020000050
S315080015800600000000E00008002000000700000038
S3150800159000000108002000000800000000200108E3
S315080015A0002000000900000000400108002000009B
S315080015B00A00000000600108002000000B0000007F
S315080015C000800108002000000C00000000A00108AF
S315080015D0002000000D00000000C0010800200000E7
S315080015E00E00000000E00108002000000F000000C7
S315080015F02E2E2F2E2E2F2E2E2F536F757263652F9C
S3150800160041524D434D335F53544D33322F47434375
S311080016102F766563746F72732E630000FA
S3150800161C0204060800000000010203040102030488
S30A0800162C060708090489
S70508000000F2
