S028000062696E2F6F70656E62746C5F6F6C696D65785F73746D3332703430355F7573622E73726563E9
S315080000000C160020713000085D3000085D300008CD
S315080000105D3000085D3000085D3000085D3000087E
S315080000205D3000085D3000085D3000085D3000086E
S315080000305D3000085D3000085D3000085D3000085E
S315080000405D3000085D3000085D3000085D3000084E
S315080000505D3000085D3000085D3000085D3000083E
S315080000605D3000085D3000085D3000085D3000082E
S315080000705D3000085D3000085D3000085D3000081E
S315080000805D3000085D3000085D3000085D3000080E
S315080000905D3000085D3000085D3000085D300008FE
S315080000A05D3000085D3000085D3000085D300008EE
S315080000B05D3000085D3000085D3000085D300008DE
S315080000C05D3000085D3000085D3000085D300008CE
S315080000D05D3000085D3000085D3000085D300008BE
S315080000E05D3000085D3000085D3000085D300008AE
S315080000F05D3000085D3000085D3000085D3000089E
S315080001005D3000085D3000085D3000085D3000088D
S315080001105D3000085D3000085D3000085D3000087D
S315080001205D3000085D3000085D3000085D3000086D
S315080001305D3000085D3000085D3000085D3000085D
S315080001405D3000085D3000085D3000085D3000084D
S315080001505D3000085D3000085D3000085D3000083D
S315080001605D3000085D3000085D3000085D3000082D
S315080001705D3000085D3000085D3000085D3000081D
S315080001805D3000085D30000830B583B0044640F2A3
S31508000190D003C2F200031B78EBB90420012101F059
S315080001A077FF4FF40063009301258DF804508DF80E
S315080001B0065000238DF8073002238DF805304FF4DA
S315080001C00060C4F20200694601F0FCFE40F2D0036A
S315080001D0C2F200031D70012C08D14FF40060C4F26E
S315080001E002004FF4006101F03DFF07E04FF40060A4
S315080001F0C4F202004FF4006101F032FF03B030BDD3
S31508000200704700BF704700BF08B50020C4F202005F
S31508000210012101F01FFF012809D04FF40060C4F244
S3150800022002004FF4805101F01BFF012008BD002099
S3150800023008BD00BF80B582B001F072FF01200146FB
S3150800024001F026FF0124009400258DF804508DF84E
S31508000250075002278DF805702846C4F20200694641
S3150800026001F0B0FE0420214601F012FF4FF480563B
S3150800027000968DF804408DF806508DF807408DF8E5
S3150800028005704FF40064C4F202042046694601F082
S3150800029099FE2046314601F0E5FE01F0D1FF01F056
S315080002A0DBFFFCE720230B8040F20000C2F20000CF
S315080002B0704700BF08B590F81231032B01D102F040
S315080002C0EDFD002008BD00BF08B502F0E7FD0020DF
S315080002D008BD00BF08B5084602F038FE002008BD74
S315080002E008B50B7813F0600F28D14B780A2B12D07B
S315080002F00B2B18D0062B21D14B881B0A212B05D195
S31508000300CA88172A28BF17220D4901E00D49172266
S3150800031000F078FA12E040F2D401C2F2000101229C
S3150800032000F070FA0AE08B7833B940F2D403C2F2CF
S31508000330000300221A6001E000F0CCFA002008BD94
S31508000340120000200900002010B50446812101F0A2
S3150800035023FA2046012101F01FFA002010BD00BF34
S3150800036010B5044681214022022301F0EBF920460C
S3150800037001214022022301F0E5F92046012140F639
S31508000380C842C2F20002402301F020FA002010BD44
S3150800039040F6C840C2F20000704700BF12230B8027
S315080003A040F26C00C2F20000704700BF04230B80C5
S315080003B040F26800C2F20000704700BF10B50A4656
S315080003C040F60C54C2F2000443F2D000C0F6000016
S315080003D0214600F0EFFC204610BD00BF10B50A46C6
S315080003E040F60C54C2F2000443F2E400C0F60000E2
S315080003F0214600F0DFFC204610BD00BF10B50A46B6
S3150800040040F60C54C2F2000443F2F400C0F60000B1
S31508000410214600F0CFFC204610BD00BF10B50A46A5
S3150800042040F60C54C2F2000443F20410C0F6000071
S31508000430214600F0BFFC204610BD00BF10B50A4695
S3150800044040F60C54C2F2000443F20C10C0F6000049
S31508000450214600F0AFFC204610BD00BF704700BF24
S31508000460704700BF704700BF08B5FFF7C9FE08BD53
S3150800047008B5FFF7C7FE08BD08B50120FFF784FEDB
S3150800048008BD00BF08B50020FFF77EFE08BD00BF07
S3150800049070B582B00120014601F0FAFD4FF4C05351
S315080004A0009303268DF8056002238DF80430002595
S315080004B08DF806508DF807502C46C4F202042046E3
S315080004C0694601F07FFD20460B210A2201F0CCFD8A
S315080004D020460C210A2201F0C7FD0420012101F063
S315080004E0D7FD4FF40063009301248DF804408DF87E
S315080004F006508DF807408DF805601D46C4F20205C2
S315080005002846694601F05EFD6B6923F400636B615A
S315080005104FF48040214601F0DFFD8020214601F09E
S31508000520C9FD4FF08050214601F0E8FD02B070BDCC
S31508000530704700BF1C2202E000BF013BFCD1013816
S31508000540B0F1FF3F01D01346F6E7704708B54FF400
S315080005507A7303FB00F0FFF7EDFF08BD10B50446FC
S31508000560D0F8E8351B699847032384F81231002030
S3150800057010BD00BF08B590F8123180F81331042376
S3150800058080F81231D0F8E835DB689847002008BDB6
S3150800059008B5D0F8E435DB6903B19847002008BDF3
S315080005A008B5D0F8E4351B6A9847002008BD00BF97
S315080005B008B5D0F8E4355B6A9847002008BD00BF47
S315080005C010B50446D0F8E8355B699847012384F8E6
S315080005D01531002010BD00BF10B50446D0F8E83527
S315080005E09B699847D4F8E4355B682046002198470C
S315080005F0002084F8150110BD10B5044600214022DC
S315080006000B4601F09FF8204680214022002301F086
S3150800061099F8012384F81231D4F8E8355B68A07894
S315080006209847002010BD00BF10B582B00446694641
S3150800063000F02EF99DF8001001F01F03012B08D0D9
S3150800064013B1022B0AD00EE02046694600F050F995
S315080006500EE02046694600F0F5FA09E020466946AC
S3150800066000F00CFB04E0204601F0800101F0E4F8FC
S31508000670002002B010BD00BF10B504460A46002986
S315080006804AD190F81131022B37D1D0F83821D0F859
S3150800069024319A4210D9D21AC0F83821C1780129D2
S315080006A002BFD0F828115B18C0F82831D4F82811F1
S315080006B092B200F0B9F820E0D0F83C21B2FBF3F191
S315080006C003FB112161B993420AD8D0F840319A4206
S315080006D006D20A4600F0A8F80023C4F840310CE018
S315080006E0D4F8E435DB682BB194F81221032A01D13A
S315080006F020469847204600F0BBF894F81631012B9F
S3150800070014D1226940F60853C2F200031B685360ED
S31508000710002384F8163109E0D0F8E4355B692BB17B
S3150800072090F81211032901D111469847002010BDEF
S3150800073010B504460A4651BB90F81131032B30D147
S31508000740D0F89023D0F87C339A4213D9D21AC0F83D
S315080007509023C178012902BFD0F88013C918C0F8C0
S3150800076080139A4228BF1A46D4F8801392B200F032
S3150800077065F816E0D0F8E4351B6923B190F8122124
S31508000780032A00D19847204600F062F809E0D0F81D
S31508000790E4359B692BB190F81211032901D1114652
S315080007A09847002010BD00BFF8B504460D4616460A
S315080007B01F46FFF76DFEC4F8E475069BC4F8E835D6
S315080007C0C4F8EC652046294600F06EFFD4F8E835F3
S315080007D01B6898472046FFF7ABFEF8BD10B50446E0
S315080007E0D0F8E4351B689847D4F8E8359B689847ED
S315080007F0002010BD08B5D0F8E4355B68984700209E
S3150800080008BD00BF38B504460D461346C4F83C215A
S31508000810C4F83821022280F8112100212A4600F066
S31508000820F1FF002038BD00BF10B50C461346002165
S31508000830224600F0E7FF002010BD00BF10B50C46A9
S3150800084013460021224600F0C1FF002010BD00BF5C
S3150800085010B50446042380F8113100210A460B46D8
S3150800086000F0D0FF204600F0FDFE002010BD00BFBE
S3150800087010B50446052380F8113100210A460B46B7
S3150800088000F0A4FF204600F0EDFE002010BD00BFDA
S3150800089090F8CC350B7090F8CD354B7090F8CF2585
S315080008A090F8CE3503EB02234B8090F8D12590F8CB
S315080008B0D03503EB02238B8090F8D32590F8D235F8
S315080008C003EB02239BB2CB80C0F84031012380F8AA
S315080008D01131704710B50446802100F0ADFF20465F
S315080008E0002100F0A9FF204600F0BCFE10BD00BFA5
S315080008F070B582B005460C464B78092B00F29C81F0
S31508000900DFE813F0230182019A0144019A0193005A
S315080009100A009A010301B8006288130A013B062BF4
S315080009206DD8DFE803F00415226C6C646800D0F813
S31508000930EC351B6880780DF1060198470146E38877
S31508000940402B03D095F81231012B5CD108235FE0C8
S31508000950D0F8E4359B6A80780DF106019847014680
S3150800096002234370C5F8F0054DE0D2B2052A3AD8FD
S31508000970DFE802F0030C151E2730D0F8EC355B686B
S3150800098080780DF10601984701463CE0D0F8EC3531
S315080009909B6880780DF106019847014633E0D0F848
S315080009A0EC35DB6880780DF10601984701462AE0A8
S315080009B0D0F8EC351B6980780DF106019847014699
S315080009C021E0D0F8EC355B6980780DF1060198478F
S315080009D0014618E0D0F8EC359B6980780DF10601E0
S315080009E0984701460FE02146FFF774FF27E12146A5
S315080009F0FFF770FF23E12146FFF76CFF1FE1214651
S31508000A00FFF768FF1BE1BDF80630002B00F01781E1
S31508000A10E288002A00F01381934238BF1A46ADF8DF
S31508000A2006202846FFF7EEFE09E1A388EBB9E3881E
S31508000A30DBB9A67806F07F0690F81231032B03D1AE
S31508000A402146FFF747FFFAE080F81461314600F0C7
S31508000A5033FF2846FFF7FCFE1EB1022385F8123144
S31508000A60EDE0012385F81231E9E028462146FFF733
S31508000A7031FFE4E0A27840F2E403C2F200031A7000
S31508000A80012A03D92146FFF725FFD8E090F812314D
S31508000A90022B02D0032B10D033E05AB180F8102174
S31508000AA0032380F812311146FFF798FE2846FFF710
S31508000AB0CFFEC4E0FFF7CCFEC1E05AB9022380F8A6
S31508000AC01231002180F81011FFF794FE2846FFF72F
S31508000AD0BFFEB4E090F810118A420FD0FFF78AFEE5
S31508000AE040F2E403C2F20003197885F8101128468B
S31508000AF0FFF774FE2846FFF7ABFEA0E0FFF7A8FE57
S31508000B009DE02146FFF7E6FE99E0E388012B03D036
S31508000B102146FFF7DFFE92E090F81231022B02D051
S31508000B20032B08D00DE040F2E001C2F200010122D9
S31508000B30FFF768FE83E005F588710122FFF762FE7C
S31508000B407DE02146FFF7C6FE79E090F81231023BB8
S31508000B50012B17D840F2D803C2F2000301221A600B
S31508000B60D0F818312BB140F2D803C2F200030322A1
S31508000B701A60284640F2D801C2F200010222FFF7A5
S31508000B8041FE5CE02146FFF7A5FE58E06388012B8D
S31508000B900AD1C0F81831D0F8E4359B682146984741
S31508000BA02846FFF755FE4AE0022B48D1A38813F0E2
S31508000BB0FF0F44D1026952681B0A013B042B17D860
S31508000BC0DFE803F003070B0F1300012363F3061294
S31508000BD00EE0022363F306120AE0032363F3061208
S31508000BE006E0042363F3061202E0052363F3061204
S31508000BF040F60853C2F200031A60012385F816313D
S31508000C002846FFF725FE1AE090F81231023B012B21
S31508000C100ED86388012B12D10023C0F81831D0F8FA
S31508000C20E4359B68214698472846FFF711FE06E0FB
S31508000C302146FFF74FFE02E02146FFF74BFE002054
S31508000C4002B070BD38B504460D4690F81231032B34
S31508000C500FD10B79012B09D8D0F8E4359B68984752
S31508000C60EB8843B92046FFF7F3FD04E0FFF732FEB1
S31508000C7001E0FFF72FFE002038BD00BF38B5054656
S31508000C800C468A88D1B26378012B27D0002B48D02E
S31508000C90032B40F08D8090F81231022B02D0032BE3
S31508000CA007D017E011F07F0F00F0828000F0C4FD36
S31508000CB07EE0638823B911F07F0F01D000F0BCFDF8
S31508000CC0D5F8E4359B682846214698472846FFF715
S31508000CD0BFFD6DE02146FFF7FDFD69E090F8123192
S31508000CE0022B02D0032B06D017E011F07F0F5FD03E
S31508000CF000F0A2FD5CE06388002B59D111F07F0F4C
S31508000D0007D000F0B9FDD5F8E4359B68284621469A
S31508000D1098472846FFF79CFD4AE02146FFF7DAFD8B
S31508000D2046E090F81231022B02D0032B06D03CE0A5
S31508000D3011F07F0F3CD000F07FFD39E012F0800FF4
S31508000D4016D001F07F0101EB810100EBC10191F89A
S31508000D501E3133B140F2DC03C2F2000301221A60ED
S31508000D601AE040F2DC03C2F2000300221A6013E024
S31508000D7001EB810100EBC10191F8763333B140F202
S31508000D80DC03C2F2000301221A6005E040F2DC032C
S31508000D90C2F2000300221A60284640F2DC01C2F2C1
S31508000DA000010222FFF72EFD02E02146FFF792FD21
S31508000DB0002038BD70B4064600B3037843B1044634
S31508000DC000230133DBB214F8015F002DF9D100E0EE
S31508000DD000235B00023313800B7003234B703278B9
S31508000DE062B13046022300255C1CE4B2CA540233C1
S31508000DF0DBB20D5510F8012F002AF5D170BC7047EB
S31508000E0070B582B00546002301930320FFF792FBD5
S31508000E10EB681A6901924FF45464C0F2030403267E
S31508000E2007E03046FFF786FBEB681A690192013C3A
S31508000E301CD0019A002AF4DA019A42F001020192C2
S31508000E40019A1A61EB681B6901934FF45463C0F267
S31508000E50030304E0EA6812690192013B03D0019A90
S31508000E6012F0010FF6D10320FFF764FB002002B051
S31508000E7070BD00BF10B4C4786CB9033300EB8200B0
S31508000E80D0F8D0409B1006D0002251F8040B206001
S31508000E9001329342F9D100205DF8044B704700BF38
S31508000EA070B40332D0F8D060951009D00A460023F2
S31508000EB0346842F8044B01339D42F9D101EB8501B0
S31508000EC0084670BC704700BF70B40023C370012386
S31508000ED083704023838001290DD10123C37208231F
S31508000EE00370042343704FF4A073C3800223037274
S31508000EF04FF0A0450EE0002561B90023C3720C230C
S31508000F000370062343704FF4A063C3800025C4F220
S31508000F100405FFE7C56005F500630361467866B119
S31508000F2005F51062034600219A6102F500745C65B6
S31508000F300131203204338E42F6D805F580634361C9
S31508000F4005F58863C0F8CC300678D6B1344605F581
S31508000F50A06102460023C2F8901001332031043202
S31508000F609C42F8D86EB105F5805305EB063101F5BC
S31508000F7080510246C2F8D03003F5805304328B42C2
S31508000F80F8D105F56065C0F80C51002070BC7047B3
S31508000F9038B504460025037A012B21D1C268936B24
S31508000FA06FF31043417A09B143F480139363E268FF
S31508000FB0D3686FF386136FF396536FF351436FF34A
S31508000FC0D343D3602046FFF71BFFE378012B25D1D7
S31508000FD0052363F3440545F02005E3689D6012E0A8
S31508000FE0C268D36843F04003D360FFF709FF637A0A
S31508000FF0002B0CBF4FF450234FF4E813E2689363B9
S315080010001420FFF7A3FAE378012B07D1E3689D685C
S31508001010052262F3440545F020059D60002038BD91
S31508001020C3689A6842F001029A600020704700BFC0
S31508001030C3689A6822F001029A600020704700BFD0
S3150800104000B583B000230193019B43F0200301936D
S31508001050019B61F38A130193C368019A1A61C368F5
S315080010601B6901934FF45463C0F2030304E0C2689A
S3150800107012690192013B03D0019A12F0200FF6D1B2
S315080010800320FFF757FA002003B05DF804FB00BF02
S3150800109000B583B000230193019B43F0100301932D
S315080010A0C368019A1A61C3681B6901934FF45463B4
S315080010B0C0F2030304E0C26812690192013B03D03F
S315080010C0019A12F0100FF6D10320FFF733FA002029
S315080010D003B05DF804FB00BF08B5C268D3686FF3B8
S315080010E05D736FF39E73012908BF43F0005302D066
S315080010F009B943F08043D3603220FFF727FA00206E
S3150800110008BD00BFC3685B6913F0010F14BF002058
S3150800111001207047C3685A6998691040704700BF34
S3150800112003691A6861F301021A60704710B4002354
S31508001130C2689361C1686FF080424A61C1684FF026
S31508001140FF344C60C1684A614FF40062C8F200027D
S31508001150C1688A61C2789A4208BF102343F0804367
S3150800116043F4701343F4605343F00C03C268916967
S315080011700B43936100205DF8044B704770B5044635
S3150800118000252E46D0F80C311D6003691A6865F3F0
S31508001190CC221A60C37A012B26D10321FFF7C0FFA0
S315080011A0E26880235362202262F31F4563F30F052A
S315080011B0E1688D62A02161F30F0663F31F46E368B9
S315080011C0C3F804614FF4907363F30F0662F31F4686
S315080011D0E368C3F808614FF4A07363F30F066FF36F
S315080011E01F46E368C3F80C6120461021FFF728FF65
S315080011F02046FFF74DFF22690023136122695361D8
S3150800120022694FF0FF3191612269D3616378002B1F
S315080012102CD0234600221646FF2599690868C00F78
S31508001220002814BF4FF090400020086099690E61AD
S3150800123099698D600132617804339142EDD8A9B17C
S31508001240234600221646FF25596D0868C00F002858
S3150800125014BF4FF0904000200860596D0E61596D1B
S315080012608D600132043361789142EDD823691A6999
S3150800127042F480721A61E378012B09D103234022D4
S3150800128062F38A0343F4803362F359432269136392
S315080012902046FFF74BFF002070BD00BF03699B681F
S315080012A0C3F34103022B05D0032B05D0012B03D032
S315080012B00320704701207047022070470369996828
S315080012C083691A68C1F34101022912BF6FF30A0242
S315080012D0032161F30A021A6003695A6842F48072AC
S315080012E05A600020704700BF30B400224B78012BAB
S315080012F00B7800EB830401BFA469012505FA03F303
S3150800130063F30F021FBF646D012505FA03F363F348
S315080013101F42236813F4004F0DD18D6865F30A0345
S31508001320CD7865F39343C98861F3995343F08053A5
S3150800133043F4004323600369D9690A43DA6100204C
S3150800134030BC704730B400231A464C78012C097813
S3150800135000EB810401BFA469012505FA01F161F3D7
S315080013600F021FBF646D012505FA01F161F31F42E3
S315080013706FF3CF3323600369D96921EA0202DA6180
S31508001380002030BC704700BF70B50B464A78012A6A
S3150800139053D10A7800EB820291690A6809695C6987
S315080013A02CB96FF31201012464F3DC410DE064F3F8
S315080013B012019D682C44013CB4FBF5F565F3DC414C
S315080013C0DC78012C08BF64F35E711C7800EB84049A
S315080013D0A4692161C178012906D1197800EB810138
S315080013E08C69196961610CE0D97801290CD05969B1
S315080013F099B101694D6B1C78012606FA04F42C4351
S315080014004C63D978012908D10169896811F4807F6C
S315080014100CBF42F0005242F0805242F00442197862
S3150800142000EB810189690A60DA78012A41D1D96815
S315080014301A789B8AFFF71EFD3BE00A7800EB8202CA
S31508001440516D0A6809695C6934B99C6864F31201CC
S31508001450012464F3DC410CE09D682C44013CB4FB98
S31508001460F5F4C4F3090464F3DC4105FB04F565F3FC
S3150800147012011C7800EB8404646D2161C17801298E
S3150800148001BF197800EB81014C6D196908BF6161CC
S31508001490D978012906D1597911B142F0005201E0F3
S315080014A042F0805242F004421B7800EB8300436D01
S315080014B01A60002070BD00BF30B482B04B78012B93
S315080014C049D182691368146900944C696CB99DF80E
S315080014D000406FF306048DF800409DF80240012590
S315080014E065F3C4048DF8024017E08D68AC4281BFED
S315080014F04D619DF8004065F306048DF800409EBFD7
S315080015009DF8005064F306058DF800509DF80240DA
S31508001510012565F3C4048DF80240009C1461C47863
S31508001520012C01BF0C7800EB8404A5690C6908BF7F
S315080015306C6143F004431360C378002B49D14B69AF
S31508001540002B46D00369586B0A78012101FA02F28A
S3150800155002435A633DE00B7800EB83035A6D136828
S31508001560126900924A6972B98C689DF8002064F382
S3150800157006028DF800209DF80220012464F3C402B7
S315080015808DF802200EE08C684C619DF8002064F30B
S3150800159006028DF800209DF80220012464F3C40297
S315080015A08DF802200A7800EB8202546D009A2261B7
S315080015B0C278012A01BF0A7800EB8202546D0A69D3
S315080015C008BF626143F004430A7800EB8200426D6B
S315080015D01360002002B030BC704700BF4B78012B67
S315080015E00CD10B7800EB830082691368002BB8BF17
S315080015F043F0804343F40013136007E00B7800EBD5
S315080016008300426D136843F400131360002070478B
S315080016104B78012B0B7800EB83000CBF8269426D77
S3150800162013686FF35553C9780239C9B2012998BFAF
S3150800163043F0805313600020704700BF03699A691E
S31508001640D8691040000C704700EB81014B6D9B6810
S31508001650026950691840704703699869DB69184040
S3150800166080B2704782B000230093C0238DF8033000
S315080016704FF00003012262F3C4038DF802301823E9
S315080016808DF80030436D009A1A61C378012B08D192
S31508001690436D00F2CC525A61436D1A684FF08022AE
S315080016A01A6002B0704700BF70B50446FFF70CFC1D
S315080016B0012384F81231002384F8143163787BB34C
S315080016C02346002201261146402583F81D6183F82A
S315080016D01C21A3F8222183F81F11C3F82451C3F84B
S315080016E02811C3F830110132607828339042ECD8BB
S315080016F0B0B1234600221146402583F8751383F8B6
S315080017007423A3F87A2383F87713C3F87C53C3F8B2
S315080017108013C3F888130132283360789042ECD8D6
S315080017202046FFF785FC2046FFF732FC20460021BD
S31508001730FFF7D2FC2046FFF721FD2046FFF770FC95
S3150800174070BD00BF38B511F0800F0FD001F07F04CF
S3150800175004EB840500EBC50505F58E7185F81C417B
S3150800176001254D708A60CB70CC800DE001F07F04B6
S3150800177004EB840500EBC50505F55D7185F8744332
S3150800178000244C708A60CB70022B04BF00230B71B7
S31508001790FFF7AAFD002038BD08B5CAB212F0800FBF
S315080017A001F07F0303EB830300EBC30314BF03F5C8
S315080017B08E7303F55D7301F07F011970D2095A70B3
S315080017C01946FFF7BFFD002008BD00BF38B501F078
S315080017D07F0404EB840500EBC50505F55D71CA6059
S315080017E04B6100238B614B7085F87443C378012BDA
S315080017F008BF0A6114B9FFF75FFE01E0FFF7C4FDF1
S31508001800002038BD70B501F07F0404EB840500EBB9
S31508001810C50505F58E7101264E7085F81C41CA600E
S315080018200A6100228A614B6114B9FFF745FE01E09F
S31508001830FFF7AAFD002070BD10B5CAB212F0800FDE
S315080018401FBF01F07F0303EB830300EBC30303F51C
S315080018508E7302BF01EB810300EBC30303F55D73CF
S3150800186001249C7001F07F011970D2095A7019463B
S31508001870FFF7B4FE002010BD10B5CAB212F0800FF3
S315080018801FBF01F07F0303EB830300EBC30303F5DC
S315080018908E7302BF01EB810300EBC30303F55D738F
S315080018A000249C7001F07F011970D2095A701946FC
S315080018B0FFF7AEFE204610BD002361F30A13026946
S315080018C011680B431360704708B503695A6842F0FC
S315080018D002025A600320FEF739FE08BD2DE9F04FD3
S315080018E087B08146FFF70EFC002800F0A082484624
S315080018F0FFF710FC8346002800F09B8210F4002FA7
S3150800190008BF00205CD04846FFF798FE044600282A
S3150800191054D04D464F46002640F29C08C2F20008B5
S31508001920CDF800B0C34614F0010F40D05FFA86FA2E
S3150800193048465146FFF788FE804610F0010F23D02F
S315080019404FF001086B6DC3F8088099F803304345DA
S3150800195008D16B6D1A69C2F31202D7F87C339B1A49
S31508001960C7F88C33DBF800301B6848465146984761
S3150800197099F80330012B07D136B999F81131052B9F
S3150800198002D14846FFF76EFE18F0020F1FBF4FF050
S3150800199002086B6D42469A6018F0080F07D0DBF80C
S315080019A000309B68484698476B6D0820986001365A
S315080019B0043528376408B6D1DDF800B00120FFE702
S315080019C01BF4802F00F0BC804846FFF745FE06460C
S315080019D0002800F0B4804F46CA464FF0000840F28F
S315080019E09C02C2F200020192CDF808B0CDF8009030
S315080019F016F0010F00F097805FFA88F900980369DE
S31508001A0019695C6B00EB89029269926824FA09F4F9
S31508001A10E401E4B20C43144014F0010F1CD0596BD6
S31508001A20012202FA08F021EA000159631446BB694B
S31508001A309A60019A13685B68009849469847009827
S31508001A40C378A34208D1B8F1000F05D190F8113137
S31508001A50042B01D1FFF706FE14F0080F1EBF082459
S31508001A60BB699C6014F0100F1EBF1024BB699C60F4
S31508001A7014F0400F1EBF4024BB699C6014F0020F8F
S31508001A801EBF0224BB699C6014F0800F4BD05446DD
S31508001A90DAF83021DAF83431D01ADAF82431BB46CC
S31508001AA0BA69916989B2984238BF03460333B1EBE4
S31508001AB0930F34D9DAF83451DAF83031AB422ED9EB
S31508001AC06BB30396009E5D1BD4F82421AA4238BF47
S31508001AD015463046D4F828114A46ABB2FFF7CAF97C
S31508001AE0D4F828312B44C4F82831D4F834312B449F
S31508001AF0C4F83431DBF818309B6903359BB2B3EB75
S31508001B00950F09D9D4F83451D4F83031AB4205D9F8
S31508001B10002BD8D1039E02E0039E00E0039EDBF86B
S31508001B20183080229A6008F1010804370AF1280A59
S31508001B3076087FF45DAFDDF808B0DDF80090012087
S31508001B401BF0020F1EBFD9F80C3002225A61BBF1F6
S31508001B50000F1FDA99F80A3043B1D9F80C316FF340
S31508001B6041036FF30003D9F80C211360D9F810303C
S31508001B705A6822F001025A6040F29C03C2F200033E
S31508001B801B689B6948469847D9F80C304FF00042C5
S31508001B905A6101201BF4006F3AD000238DF81730E4
S31508001BA099F812318DF8173040F29C03C2F20003FF
S31508001BB01B685B6948469847D9F810309968D9F880
S31508001BC00C304FF400625A6199F80A30FBB111F0F3
S31508001BD0010F1CD099F81531012B18D19DF8173033
S31508001BE0DBB2032B13D1D9F80C311A6842F0010283
S31508001BF01A60D9F80C311A6842F003021A604FF4D9
S31508001C006D43CEF200031A6942F006021A610120FA
S31508001C101BF0080F0CD040F29C03C2F200031B68AD
S31508001C20DB6848469847D9F80C3008225A610120E3
S31508001C301BF0100F38D0D9F80C309A6922F0100230
S31508001C409A61D9F80C301C6A04F00F0303EB83037E
S31508001C5009EBC30505F55D75C4F34343022B02D0B2
S31508001C60062B0FD019E0C4F30A14B4B14846E96844
S31508001C702246FFF715F9EB682344EB60AB6923446A
S31508001C80AB610AE0484609F2CC510822FFF708F989
S31508001C90C4F30A14AB692344AB61D9F80C309A69CA
S31508001CA042F010029A6101201BF4805F4CD0002498
S31508001CB0274626462546D9F810305A6822F00102EA
S31508001CC05A6048462146FFF7BBF999F8013063B1D7
S31508001CD04B462246FF2198698160586D8160013222
S31508001CE0043399F801008242F5D3D9F810304FF041
S31508001CF0FF329A614FF0010868F30F0468F31F4436
S31508001D00D9F81030DC6147F00B07D9F810305F615D
S31508001D1046F00B06D9F810301E61D9F810301A684B
S31508001D206FF30A121A604846FFF79CFC45F4805583
S31508001D30D9F80C305D6140F29C03C2F200031B68BF
S31508001D401B694846984740461BF4005F26D048461C
S31508001D50FFF7B4FAD9F80C30DC684846FFF79EFA64
S31508001D60032801BF002389F802304FF40073A9F84D
S31508001D7004300FBF0923012389F8023040231CBF12
S31508001D80A9F80430052363F38D24D9F80C30DC60F8
S31508001D90D9F80C304FF400525A6101201BF4801F09
S31508001DA00DD040F29C03C2F200031B68DB6948466B
S31508001DB09847D9F80C304FF480125A6101201BF469
S31508001DC0001F0DD040F29C03C2F200031B681B6A79
S31508001DD048469847D9F80C304FF400125A6101204A
S31508001DE01BF0804F0DD040F29C03C2F200031B6823
S31508001DF05B6A48469847D9F80C304FF080425A61DA
S31508001E0001201BF0040F15D0D9F80C305C6814F0CB
S31508001E10040F07D040F29C03C2F200031B689B6ABA
S31508001E2048469847D9F80C305C60012002E000204B
S31508001E3000E0002007B0BDE8F08F00BF4FF47053F4
S31508001E40C4F202031B69002B0DDA4FF47053C4F277
S31508001E50020340F22312C4F267525A6048F6AB12E4
S31508001E60CCF6EF525A6070474FF47053C4F202032F
S31508001E701A6942F000421A61704700BF4FF4705366
S31508001E80C4F20203D86070474FF47053C4F20203D9
S31508001E90DB6813F4803F1BD14FF47053C4F202037E
S31508001EA0DB6813F0100F15D14FF47053C4F2020318
S31508001EB0DB6813F0EF0F0FD14FF47053C4F202032F
S31508001EC0D86800F0020000280CBF082007207047D9
S31508001ED001207047052070470620704700B583B07B
S31508001EE008238DF80730FFF7CFFF8DF807009DF818
S31508001EF00730DBB2012B08D1FFF7C6FF8DF80700C4
S31508001F009DF80730DBB2012BF6D09DF8070003B029
S31508001F105DF804FB70B50546002659B1012908BFCE
S31508001F204FF4807606D0022914BF4FF440764FF45A
S31508001F300076FFE7FFF7D2FF082821D14FF4705447
S31508001F40C4F20204236923F44073236123691E4300
S31508001F502661236923F0F8032361236943F002030A
S31508001F601D432561236943F480332361FFF7B6FFD8
S31508001F70236923F002032361236923F0F80323610D
S31508001F8070BD00BF70B505460E46FFF7A7FF0828C7
S31508001F9016D14FF47054C4F20204236923F4407333
S31508001FA02361236943F400732361236943F0010322
S31508001FB023612E60FFF792FF236923F00103236153
S31508001FC070BD00BFF0B400230125032605FA03F20D
S31508001FD00C681440944238D107685A0006FA02F48D
S31508001FE0E44327400760076891F804C00CFA02FC2E
S31508001FF04CEA070707600F79013FFFB2012F16D891
S3150800200087683C40846087684C7994403C43846088
S3150800201047689CB205FA04FC27EA0C07476047683C
S3150800202091F806C00CFA04F4A4B23C434460C768AD
S315080020309CB2640006FA04F427EA0404C460C4687F
S31508002040CF7907FA02F22243C2600133102BBDD1C1
S31508002050F0BC7047036919420CBF00200120704785
S31508002060018370474183704710B401F007039B0052
S31508002070C90800EB8100046A0F21994024EA01018E
S315080020800162016A9A40114301625DF8044B704788
S3150800209039B14FF46053C4F202031A6B1043186344
S315080020A070474FF46053C4F202031A6B22EA000029
S315080020B01863704739B14FF46053C4F202035A6B80
S315080020C01043586370474FF46053C4F202035A6BC7
S315080020D022EA00005863704739B14FF46053C4F2DE
S315080020E002035A6C1043586470474FF46053C4F2A5
S315080020F002035A6C22EA00005864704739B14FF45B
S315080021006053C4F202031A6A1043186270474FF408
S315080021106053C4F202031A6A22EA00001862704782
S3150800212082B04FF46053C4F202031A6842F0010207
S315080021301A6000229A60196821F0847121F48031AE
S31508002140196043F21001C2F200415960196821F47E
S3150800215080211960DA60009201921A6842F480328E
S315080021601A604FF46052C4F20202136803F4003393
S315080021700193009B01330093019B1BB9009BB3F5A8
S31508002180A06FF2D14FF46053C4F202031B6813F434
S31508002190003F14BF012300230193019B012B46D165
S315080021A04FF46053C4F202031A6C42F080521A6468
S315080021B04FF4E042C4F20002116841F44041116054
S315080021C09A689A609A6842F400429A609A6842F459
S315080021D0A0529A6045F20842C0F240725A601A68E4
S315080021E042F080721A604FF46052C4F20202136819
S315080021F013F0007FFBD04FF47053C4F2020340F291
S3150800220005621A604FF46053C4F202039A6822F01A
S3150800221003029A609A6842F002029A604FF460528A
S31508002220C4F20202936803F00C03082BFAD14FF4A8
S315080022306D43CEF200034FF000629A6002B0704719
S3150800224008B500F081FA00F0D1FE00F0B5FE00F006
S315080022500DF800F067FA08BD08B500F077FA00F047
S31508002260E1FE00F00FF800F03DFA08BD08B500F0F1
S315080022705DF800F0F9FC40F2CC03C2F2000302223A
S315080022801A7008BD08B540F2E800C2F2000000F076
S31508002290A1FD01280BD140F2CC03C2F200030222B1
S315080022A01A7040F2E800C2F2000000F05FF808BDBC
S315080022B008B500F045FD08BD08B540F2CC03C2F2EA
S315080022C000031B78022B02D1C9B200F045FD00F0CD
S315080022D045F808BD40F2CC03C2F20003187801287D
S315080022E004D002280CBF3F204020704708207047C2
S315080022F040F2CC03C2F200031878012804D0022861
S315080023000CBF3F20402070470820704708B500F0F2
S315080023101BF808BD40F22813C2F20003FE22DA7049
S3150800232018710222A3F84420704700BF40F2281310
S31508002330C2F2000300221A709A6483F84320A3F8B5
S3150800234044209A705A70704740F22813C2F200036C
S315080023501878003018BF0120704700BF40F22813D4
S31508002360C2F20003002283F84320704738B50446BA
S315080023700178FF291CD140F22814C2F20004002378
S31508002380637001252570FF22E270102222716371A5
S31508002390FFF7A0FFA071FFF7ABFFE071FFF7A8FFFB
S315080023A0000A20726572A5720823A4F8443079E100
S315080023B040F22813C2F200031B78012B40F09081EB
S315080023C0C939352900F26B81DFE811F0DB006901B4
S315080023D069016501690169015901FC0042012F0182
S315080023E0690169016901690169016901690169018F
S315080023F0690169016901690169016901690169017F
S31508002400690169016901690169016901690169016E
S31508002410690169016901690169016901690169015E
S315080024207F00540036007300690169016901A10043
S315080024306901B900BD00CE004578FFF74BFF0138AA
S31508002440854203DD2220FFF765FF2BE140F22815C0
S31508002450C2F20005281DA96C627800F0A3F9FF23D3
S31508002460EB706278AB6C1344AB6463780133A5F800
S31508002470443017E14578FFF72DFF0138854203DD23
S315080024802220FFF747FF0DE1616840F22815C2F2E6
S315080024900005A964281D627800F084F9FF23EB7013
S315080024A06278AB6C1344AB6463780133A5F84430A7
S315080024B0F8E040F22813C2F20003FF22DA704268FD
S315080024C09A640122A3F84420ECE040F22813C2F2F1
S315080024D00003FF22DA709B6C406840B11844002262
S315080024E013F8011B0A44D2B28342F9D100E0002254
S315080024F040F22813C2F20003C3F8072001221A711A
S3150800250000225A719A710822A3F84420CAE040F2C0
S315080025102813C2F20003FF22DA7043F22412C0F62F
S3150800252000029A6400221A715A719A710721D971A8
S315080025301A725A729A720822A3F84420B2E000204E
S31508002540FFF7E8FEAEE040F22813C2F20003FF22CE
S31508002550DA7000221A71597859719A71DA711A72F9
S315080025600622A3F844209DE040F22813C2F2000395
S3150800257000221A705A70FF22DA700122A3F844204A
S3150800258090E040F22813C2F200039D6CFFF7A2FE0A
S31508002590411E2846621C00F013FD18B93120FFF7CA
S315080025A0B9FE7FE040F22814C2F20004FF23E3706C
S315080025B0A56CFFF78FFE013D2844A0640123A4F80B
S315080025C044306FE04578FFF785FE0238854203DD23
S315080025D02220FFF79FFE65E040F22813C2F20003AF
S315080025E0FF22DA700122A3F84420617839B900F095
S315080025F0F3FC002856D13120FFF78CFE52E040F25A
S315080026002813C2F20003986CA21C00F0D9FC18B972
S315080026103120FFF77FFE45E040F22813C2F200039F
S3150800262061789A6C0A449A643CE040F22814C2F233
S315080026300004FF23E370002525716571FFF74AFE44
S31508002640A071E571257265720723A4F8443029E064
S3150800265040F22813C2F20003986C616800F0B4FCDB
S3150800266018B93120FFF756FE1CE040F22813C2F2D3
S315080026700003FF22DA700122A3F8442012E000F0DA
S3150800268075F840F22813C2F20003FF22DA7001221D
S31508002690A3F8442006E03120FFF73CFE02E02020A4
S315080026A0FFF738FE40F22813C2F2000393F84330CE
S315080026B0012B02D11020FFF72DFE40F22813C2F29B
S315080026C00003B3F844100BB2002B09DD40F22810C2
S315080026D0C2F20000012380F843300330FFF7ECFD17
S315080026E038BD00BF08B5FFF711FE012819D040F222
S315080026F07413C2F200031B78012B12D100F0A4FC5C
S3150800270040F27813C2F200031B6803F5FA63984295
S3150800271007D340F27413C2F2000300221A7000F0C5
S3150800272025F808BD08B540F27413C2F20003012269
S315080027301A7000F089FC40F27813C2F200031860A0
S31508002740FFF7D0FF08BD00BF704700BF704700BF46
S3150800275008B540F27C13C2F20003186040F28013F9
S31508002760C2F200031960FFF7F1FFFCE708B500F0B5
S315080027702FFCA8B1FDF748FD90B1FFF799FD00F0D1
S3150800278049FC00F0F1F920F0604020F07F024EF697
S315080027900853CEF200031A6000F0E6F9436898473A
S315080027A008BD00BF70B5561EB6B24AB14C1E0E44DF
S315080027B0451A14F8013F2B55FFF7C8FFB442F8D164
S315080027C070BD00BFF8B507460024254643F25C16DF
S315080027D0C0F60006FFF7BAFFA359BB420ED8311957
S315080027E049680B449F4209D243F25C13C0F60003C2
S315080027F005EB450203EB8203187AF8BD01350C3464
S31508002800842CE7D1FF20F8BD2DE9F84380460068FF
S31508002810FFF7D8FFFF2830D0FFF710FBF320FFF7AC
S315080028202DFBFFF731FB01281CBF002408F1040922
S3150800283004D1FFF719FB0020BDE8F883D8F800603B
S31508002840A71959F80450FFF781FF38462946FFF7BC
S3150800285099FB082807D1A359AB4206D10434B4F52D
S31508002860007FEBD103E0002402E0002400E001240D
S31508002870FFF7FAFA2046BDE8F8830020BDE8F8839A
S3150800288038B504460D4640F28413C2F20003984256
S3150800289009D04FF48043C0F6000399420BD0FFF7E6
S315080028A0B3FF20B917E040F28834C2F20004C5F33A
S315080028B0080393B903E040F28414C2F200042368C3
S315080028C09D420CD0204640F8045B29464FF400721E
S315080028D0FFF768FF03E0002038BD002038BD20461A
S315080028E038BD00BF2DE9F04106460C4617461D4681
S315080028F04FEA51284FEA48280368B3F1FF3F06D14B
S3150800290040F8048B41464FF40072FFF74BFF3368DB
S31508002910434505D030464146FFF7B2FF0646D0B1DB
S315080029203368E41A3444043408F50078FFF70EFFD8
S31508002930331DE31AB3F5007F06D330464146FFF749
S315080029409FFF064650B1041D17F8013B04F8013BEA
S31508002950013DEBD105E00020BDE8F0810020BDE88F
S31508002960F0810120BDE8F08140F28833C2F200030D
S315080029704FF0FF321A6040F28413C2F200031A6065
S31508002980704700BF70B504460D461646FFF71AFF96
S31508002990FF281BD0681E2044FFF714FFFF2817D016
S315080029A0620A4FF48043C0F60003B3EB422F07BF19
S315080029B040F28410C2F2000040F28830C2F20000F1
S315080029C0214632462B46FFF78DFF70BD002070BDAD
S315080029D0002070BDF8B505460E46FFF7F3FE04461F
S315080029E0701E2844FFF7EEFE0546FF2C18BFFF2889
S315080029F032D084422AD85CB30B282BD8FFF71EFAAC
S31508002A00F320FFF73BFAFFF73FFA01281EBF43F210
S31508002A102C16C0F60006022703D1FFF725FA002078
S31508002A20F8BDFFF793FE36F814003946FFF772FA39
S31508002A30082803D0FFF718FA0020F8BD0134E4B2DD
S31508002A40A542EED2FFF710FA0120F8BD0020F8BD26
S31508002A500020F8BD0020F8BD0020F8BD00B583B001
S31508002A6040F28413C2F200031B68B3F1FF3F08BFAC
S31508002A7001201CD040F28413C2F2000399685A68F8
S31508002A801144DA6811441A6911445A6911449A6959
S31508002A900A44D96953185B4202AA42F8043D44F233
S31508002AA08810C0F600000421FFF76CFFFFE703B0AB
S31508002AB05DF804FB44F20402C0F600024FF48043BA
S31508002AC0C0F6000310681B68184444F20803C0F6F1
S31508002AD000031B68184444F20C03C0F600031B6885
S31508002AE0184444F21003C0F600031B68184444F265
S31508002AF01403C0F600031B68184444F21803C0F612
S31508002B0000031B68184444F28813C0F600031B68C8
S31508002B101844D0F1010038BF0020704708B540F2CC
S31508002B208413C2F200031B68B3F1FF3F06D040F2DC
S31508002B308410C2F20000FFF767FE88B140F28833BE
S31508002B40C2F200031B68B3F1FF3F0BD040F2883096
S31508002B50C2F20000FFF758FE003018BF012008BD7A
S31508002B60002008BD012008BD4FF48040C0F60000D3
S31508002B70704700BF38B504460D46012807D943F209
S31508002B80E010C0F6000040F29F11FFF7E1FD40F2A9
S31508002B909453C2F2000304EB440203EBC2035A7CCB
S31508002BA01B7C9A4220D040F29453C2F2000304EBF5
S31508002BB0440203EBC203DA681570597C0131597473
S31508002BC0DA680132DA605B689A420FD940F29453A8
S31508002BD0C2F200036200111953F83110144403EBD2
S31508002BE0C403D960012038BD002038BD012038BD96
S31508002BF038B504460D46012807D943F2E010C0F659
S31508002C00000040F2C111FFF7A3FD40F29453C2F24F
S31508002C10000304EB440203EBC2035B7CFBB140F206
S31508002C209453C2F2000303EBC2039A6812782A701F
S31508002C30597C013959749A6801329A605B689A42DC
S31508002C400FD940F29453C2F200036200111953F8E7
S31508002C503110144403EBC4039960012038BD0020E9
S31508002C6038BD012038BD00BF10B582B040F294537C
S31508002C70C2F200030020987403F118025A61012178
S31508002C8083F82A10D86240F29051C2F200010A6015
S31508002C904021197440F28C61C2F200014C1C9C6000
S31508002CA0DC6058741C6001F140045C600870002AFE
S31508002CB03DD040F29051C2F20001D86A0860402126
S31508002CC083F8281040F2C451C2F20001481C186269
S31508002CD05862002483F82940986101F14003536043
S31508002CE0927C0A7040F28C63C2F200031B78FF2BB9
S31508002CF001D0FF2A06D143F2E010C0F600007E217B
S31508002D00FFF726FD40F28003C2F20003009340F26B
S31508002D10D060C2F20000012140F24C02C2F2000269
S31508002D2040F22003C2F20003FDF73EFD06E040F242
S31508002D30C453C2F20003FF221A70DCE702B010BDCA
S31508002D4008B540F2D060C2F20000FEF7BDFD0020D3
S31508002D50FDF71AFA08BD00BF2DE9F84307460C46E9
S31508002D603F2906D943F2E010C0F600009F21FFF77D
S31508002D70EFFC40F28C63C2F2000318782146FFF795
S31508002D80F9FE012806D043F2E010C0F60000A321A0
S31508002D90FFF7DEFC2646D4B1002440F28C65C2F269
S31508002DA0000543F2E018C0F600084FF0AC09FFF73B
S31508002DB0CDFC2878395DFFF7DDFE012803D04046B3
S31508002DC04946FFF7C5FC0134A3B2B342EFD3BDE8C9
S31508002DD0F88300BF10B5044640F2D060C2F2000086
S31508002DE0FEF77CFD40F28863C2F200031B7803BB42
S31508002DF040F2C453C2F20003187840F24861C2F2A6
S31508002E000001FFF7F5FE01283ED140F24863C2F201
S31508002E1000031B78002B39D040F28863C2F2000306
S31508002E2001221A7040F28C53C2F200030020187077
S31508002E3010BD40F2C453C2F2000340F28C52C2F2F3
S31508002E40000211781878144B1944FFF7D1FE0128AF
S31508002E501ED140F28C53C2F200031A780132D2B264
S31508002E601A7040F24863C2F200031B78934211D1EC
S31508002E7020460949FFF796FC40F28863C2F2000330
S31508002E8000221A70012010BD002010BD002010BDC0
S31508002E90002010BD002010BD490600202DE9F04392
S31508002EA083B040F28C63C2F200031C78012C07D968
S31508002EB043F2E010C0F6000040F2E111FFF748FCCB
S31508002EC040F29453C2F2000304EB440403EBC40338
S31508002ED05B7CBBB3402B34BF99464FF04009B9F130
S31508002EE0000F23D040F20862C2F20002541E09F114
S31508002EF0FF3652FA86F640F28C65C2F2000543F2B6
S31508002F00E017C0F6000740F2291828780DF10701E6
S31508002F10FFF76EFE012803D038464146FFF718FC36
S31508002F209DF8072004F8012FB442EED140F2D06094
S31508002F30C2F20000812140F20862C2F200024B464A
S31508002F40FEF760FC03B0BDE8F08300BF2DE9F84347
S31508002F5040F2D063C2F2000300EB800003EBC0032B
S31508002F60B3F88C73DFB1002440F2C456C2F20006EF
S31508002F7043F2E018C0F600084FF4A4793578FDF757
S31508002F8007FA015D2846FFF7F5FD012803D04046FC
S31508002F904946FFF7DDFB0134A3B29F42EED8FDF7A1
S31508002FA0F7F9024640F2D060C2F200000121402340
S31508002FB0FEF70CFCBDE8F88308B5FFF7D5FC08BD9D
S31508002FC008B5FFF7DFFC08BD08B5FFF703FD08BD28
S31508002FD008B5FFF76FFD08BD08B5FFF73FFD10B14F
S31508002FE0FFF79CFD08BD002008BD00BF4EF2100388
S31508002FF0CEF2000300221A6049F23F01C0F2020134
S3150800300059609A600521196040F6C443C2F200036C
S315080030101A6070474EF21003CEF2000300221A60BF
S31508003020704700BF4EF21003CEF200031B6813F47C
S31508003030803F1FBF40F6C443C2F200031A6801323C
S3150800304018BF1A60704700BF08B5FFF7EBFF40F6D8
S31508003050C443C2F20003186808BD00BF08B543F2AE
S315080030600420C0F600003621FFF772FB08BD00BF3A
S3150800307010B572B640F20002C2F2000240F2CD0369
S31508003080C2F200039A4210D2131D0E4CE41A24F021
S31508003090030404340023104643F23021C0F600012D
S315080030A05A581A500433A342FAD1074807494FF031
S315080030B000028842B8BF40F8042BFADBFDF7BAF8DD
S315080030C010BD00BFD0000020D00000200B0E00204D
S315080030D057696E5553422042756C6B204465766974
S315080030E0636500004F70656E424C542055736572D7
S315080030F0000000003030303030303030303530436A
S315080031000000000044656661756C740057696E5569
S3150800311053422042756C6B20496E74657266616312
S31508003120650000004F70656E424C540000000800B0
S315080031301000180020002800300038004000480021
S31508003140500058008000880090009800A000A80051
S31508003150B000B800C000C800D000D8000040000881
S315080031600040000001000000008000080040000048
S315080031700200000000C00008004000000300000034
S315080031800000010800000100040000000000020819
S31508003190000002000500000000000408000002000C
S315080031A006000000000006080000020007000000F4
S315080031B000000808000002000800000000000A08D5
S315080031C0000002000900000000000C0800000200D0
S315080031D00A00000000000E08000002000B000000B4
S315080031E02E2E2F2E2E2F2E2E2F536F757263652F90
S315080031F041524D434D345F53544D33322F757362EC
S315080032002E6300002E2E2F2E2E2F2E2E2F536F7547
S315080032107263652F41524D434D345F53544D3332DB
S315080032202F4743432F766563746F72732E630000CE
S3150800323009022000010100C0320904000002FF0053
S315080032400000070581024000FF070501024000FF54
S315080032506103000849030008E102000800000000B5
S3150800326000000000C9020008D5020008B5020008DF
S315080032700000000000000000A50200089D030008E9
S31508003280AD030008DD030008BD030008FD030008C0
S315080032901D0400083D040008040309041201100176
S315080032A000000040501DAC6000010102030100004F
S315080032B05D04000861040008650400086904000844
S315080032C0710400087904000885040008A00000209D
S315080032D03107000879060008290600089105000844
S315080032E0F9050008750500085D050008A105000830
S312080032F0B1050008C1050008D9050008044D
S70508000000F2
