S028000062696E2F6F70656E62746C5F6F6C696D65785F73746D3332703430355F63616E2E7372656301
S31508000000AC0C0020AD1200089912000899120008DD
S315080000109912000899120008991200089912000806
S3150800002099120008991200089912000899120008F6
S3150800003099120008991200089912000899120008E6
S3150800004099120008991200089912000899120008D6
S3150800005099120008991200089912000899120008C6
S3150800006099120008991200089912000899120008B6
S3150800007099120008991200089912000899120008A6
S315080000809912000899120008991200089912000896
S315080000909912000899120008991200089912000886
S315080000A09912000899120008991200089912000876
S315080000B09912000899120008991200089912000866
S315080000C09912000899120008991200089912000856
S315080000D09912000899120008991200089912000846
S315080000E09912000899120008991200089912000836
S315080000F09912000899120008991200089912000826
S315080001009912000899120008991200089912000815
S315080001109912000899120008991200089912000805
S3150800012099120008991200089912000899120008F5
S3150800013099120008991200089912000899120008E5
S3150800014099120008991200089912000899120008D5
S3150800015099120008991200089912000899120008C5
S3150800016099120008991200089912000899120008B5
S3150800017099120008991200089912000899120008A5
S31508000180991200089912000808B50020C4F2020066
S31508000190012100F079F9012809D04FF40060C4F272
S315080001A002004FF4805100F075F9012008BD0020C7
S315080001B008BD00BF80B582B000F0A8F9012001464D
S315080001C000F080F90124009400268DF804608DF86B
S315080001D0076002258DF805503046C4F202006946CC
S315080001E000F00AF92846214600F06CF94FF48067BA
S315080001F0C4F2020738460821092200F04FF93846AA
S3150800020009210A4600F04AF94FF4407300938DF825
S3150800021004508DF805508DF806608DF8074038466D
S31508000220694600F0E9F84FF00070214600F05CF9E5
S315080002300420214600F046F94FF4805700978DF8C0
S3150800024004408DF806608DF807408DF805504FF488
S315080002500064C4F202042046694600F0CDF8204640
S31508000260394600F019F900F0E1F900F0EBF9FCE77E
S315080002704FF47053C4F202031B69002B0DDA4FF4D6
S315080002807053C4F2020340F22312C4F267525A6052
S3150800029048F6AB12CCF6EF525A6070474FF47053DB
S315080002A0C4F202031A6942F000421A61704700BF9D
S315080002B04FF47053C4F20203D86070474FF470537A
S315080002C0C4F20203DB6813F4803F1BD14FF470536A
S315080002D0C4F20203DB6813F0100F15D14FF4705304
S315080002E0C4F20203DB6813F0EF0F0FD14FF470531B
S315080002F0C4F20203D86800F0020000280CBF0820E8
S315080003000720704701207047052070470620704770
S3150800031000B583B008238DF80730FFF7CFFF8DF8B7
S3150800032007009DF80730DBB2012B08D1FFF7C6FF9F
S315080003308DF807009DF80730DBB2012BF6D09DF843
S31508000340070003B05DF804FB70B50546002659B1F1
S31508000350012908BF4FF4807606D0022914BF4FF44E
S3150800036040764FF40076FFE7FFF7D2FF082821D141
S315080003704FF47054C4F20204236923F440732361D2
S3150800038023691E432661236923F0F8032361236941
S3150800039043F002031D432561236943F48033236137
S315080003A0FFF7B6FF236923F002032361236923F0CD
S315080003B0F803236170BD00BF70B505460E46FFF70A
S315080003C0A7FF082816D14FF47054C4F20204236913
S315080003D023F440732361236943F40073236123697B
S315080003E043F0010323612E60FFF792FF236923F090
S315080003F00103236170BD00BFF0B400230125032665
S3150800040005FA03F20C681440944238D107685A007A
S3150800041006FA02F4E44327400760076891F804C027
S315080004200CFA02FC4CEA070707600F79013FFFB296
S31508000430012F16D887683C40846087684C799440B9
S315080004403C43846047689CB205FA04FC27EA0C071B
S315080004504760476891F806C00CFA04F4A4B23C4316
S315080004604460C7689CB2640006FA04F427EA0404E8
S31508000470C460C468CF7907FA02F22243C260013326
S31508000480102BBDD1F0BC7047036919420CBF002080
S3150800049001207047018370474183704710B401F00B
S315080004A007039B00C90800EB8100046A0F219940E5
S315080004B024EA01010162016A9A40114301625DF86A
S315080004C0044B704739B14FF46053C4F202031A6BF8
S315080004D01043186370474FF46053C4F202031A6B53
S315080004E022EA00001863704739B14FF46053C4F22A
S315080004F002031A6C1043186470474FF46053C4F231
S3150800050002031A6C22EA00001864704782B04FF49E
S315080005106053C4F202031A6842F001021A6000220C
S315080005209A60196821F0847121F48031196043F2C8
S315080005301001C2F200415960196821F4802119603E
S31508000540DA60009201921A6842F480321A604FF417
S315080005506052C4F20202136803F400330193009B4D
S3150800056001330093019B1BB9009BB3F5A06FF2D131
S315080005704FF46053C4F202031B6813F4003F14BF20
S31508000580012300230193019B012B46D14FF46053AD
S31508000590C4F202031A6C42F080521A644FF4E04225
S315080005A0C4F20002116841F4404111609A689A60E9
S315080005B09A6842F400429A609A6842F4A0529A6095
S315080005C045F20842C0F240725A601A6842F08072D8
S315080005D01A604FF46052C4F20202136813F0007FE7
S315080005E0FBD04FF47053C4F2020340F205621A605E
S315080005F04FF46053C4F202039A6822F003029A6029
S315080006009A6842F002029A604FF46052C4F20202FB
S31508000610936803F00C03082BFAD14FF46D43CEF21E
S3150800062000034FF000629A6002B0704708B500F008
S315080006307FFA00F0F9FD00F0DDFD00F00DF800F09E
S3150800064065FA08BD08B500F075FA00F009FE00F075
S315080006500FF800F03BFA08BD08B500F05BF800F0AB
S3150800066079FA40F20003C2F2000301221A7008BDAB
S3150800067008B540F20400C2F2000000F073FB01283E
S315080006800BD140F20003C2F2000301221A7040F2B5
S315080006900400C2F2000000F05DF808BD704700BF14
S315080006A008B540F20003C2F200031B78012B02D101
S315080006B0C9B200F003FB00F045F808BD40F200039C
S315080006C0C2F200031878012804D002280CBF3F2084
S315080006D0402070470820704740F20003C2F200032A
S315080006E01878012804D002280CBF3F204020704704
S315080006F00820704708B500F01BF808BD40F244030F
S31508000700C2F20003FE22DA7018710222A3F844200E
S31508000710704700BF40F24403C2F2000300221A7079
S315080007209A6483F84320A3F844209A705A70704755
S3150800073040F24403C2F200031878003018BF0120C3
S31508000740704700BF40F24403C2F20003002283F858
S315080007504320704738B504460178FF291CD140F27A
S315080007604404C2F200040023637001252570FF22A9
S31508000770E270102222716371FFF7A0FFA071FFF7E4
S31508000780ABFFE071FFF7A8FF000A20726572A57239
S315080007900823A4F8443079E140F24403C2F2000386
S315080007A01B78012B40F09081C939352900F26B81FD
S315080007B0DFE811F0DB00690169016501690169017A
S315080007C05901FC0042012F016901690169016901AA
S315080007D069016901690169016901690169016901BB
S315080007E069016901690169016901690169016901AB
S315080007F0690169016901690169016901690169019B
S3150800080069016901690169017F00540036007300B6
S31508000810690169016901A1006901B900BD00CE003D
S315080008204578FFF74BFF0138854203DD2220FFF7A5
S3150800083065FF2BE140F24405C2F20005281DA96CAC
S31508000840627800F0EFFAFF23EB706278AB6C134422
S31508000850AB6463780133A5F8443017E14578FFF7B0
S315080008602DFF0138854203DD2220FFF747FF0DE102
S31508000870616840F24405C2F20005A964281D627841
S3150800088000F0D0FAFF23EB706278AB6C1344AB64CC
S3150800089063780133A5F84430F8E040F24403C2F225
S315080008A00003FF22DA7042689A640122A3F8442002
S315080008B0ECE040F24403C2F20003FF22DA709B6CBC
S315080008C0406840B11844002213F8011B0A44D2B20A
S315080008D08342F9D100E0002240F24403C2F2000349
S315080008E0C3F8072001221A7100225A719A71082248
S315080008F0A3F84420CAE040F24403C2F20003FF22F0
S31508000900DA7041F20C32C0F600029A6400221A71BB
S315080009105A719A710721D9711A725A729A720822F3
S31508000920A3F84420B2E00020FFF7E8FEAEE040F26C
S315080009304403C2F20003FF22DA7000221A715978C2
S3150800094059719A71DA711A720622A3F844209DE049
S3150800095040F24403C2F2000300221A705A70FF22C2
S31508000960DA700122A3F8442090E040F24403C2F270
S3150800097000039D6CFFF7A2FE411E2846621C00F08C
S315080009803DFC18B93120FFF7B9FE7FE040F2440478
S31508000990C2F20004FF23E370A56CFFF78FFE013D4A
S315080009A02844A0640123A4F844306FE04578FFF793
S315080009B085FE0238854203DD2220FFF79FFE65E0AB
S315080009C040F24403C2F20003FF22DA700122A3F8C0
S315080009D04420617839B900F01DFC002856D1312031
S315080009E0FFF78CFE52E040F24403C2F20003986C13
S315080009F0A21C00F003FC18B93120FFF77FFE45E082
S31508000A0040F24403C2F2000361789A6C0A449A647D
S31508000A103CE040F24404C2F20004FF23E3700025E0
S31508000A2025716571FFF74AFEA071E5712572657239
S31508000A300723A4F8443029E040F24403C2F2000335
S31508000A40986C616800F0DEFB18B93120FFF756FE96
S31508000A501CE040F24403C2F20003FF22DA700122CE
S31508000A60A3F8442012E000F0C1F940F24403C2F2B0
S31508000A700003FF22DA700122A3F8442006E03120A1
S31508000A80FFF73CFE02E02020FFF738FE40F2440361
S31508000A90C2F2000393F84330012B02D11020FFF76E
S31508000AA02DFE40F24403C2F20003B3F844100BB221
S31508000AB0002B09DD40F24400C2F20000012380F851
S31508000AC043300330FFF7ECFD38BD00BF08B5FFF72C
S31508000AD011FE012819D040F29003C2F200031B78D8
S31508000AE0012B12D100F0CEFB40F29403C2F20003B0
S31508000AF01B6803F5FA73984207D340F29003C2F2D3
S31508000B00000300221A7000F071F908BD08B540F21A
S31508000B109003C2F2000301221A7000F0B3FB40F200
S31508000B209403C2F200031860FFF7D0FF08BD00BFA8
S31508000B30704700BF704700BF08B540F29803C2F27D
S31508000B400003186040F29C03C2F200031960FFF725
S31508000B50F1FFFCE72DE9F047002341F23830C0F6F3
S31508000B6000004FF4FA744AF2104113F80080C218D4
S31508000B7092F801C008EB0C0202FB044291FBF2F961
S31508000B8002FB191636B94D4609F1FF3292B2B2F593
S31508000B90806F03D30233242BE7D187E04746E2462A
S31508000BA04FF4C843C4F2000300225A611A6842F49B
S31508000BB000421A601B6813F4004F09D04FF4C8446A
S31508000BC0C4F20004FFF7B6FF236813F4004FF9D107
S31508000BD04FF4C843C4F200031A6822F002021A60EE
S31508000BE01A6842F001021A605B6813F0010F09D116
S31508000BF04FF4C844C4F20004FFF79CFF636813F07F
S31508000C00010FF9D0013F0AF1FF36360546EA0747D4
S31508000C10013D3D434FF4C843C4F20003DD611A6841
S31508000C2022F001021A605B6813F0010F09D04FF435
S31508000C30C844C4F20004FFF77DFF636813F0010F90
S31508000C40F9D14FF4C843C4F20003D3F8002242F0A6
S31508000C500102C3F80022D3F81C2222F00102C3F8CD
S31508000C601C22D3F80C2242F00102C3F80C220022FF
S31508000C70C3F84022C3F84422D3F8042222F0010222
S31508000C80C3F80422D3F8142222F00102C3F814226E
S31508000C90D3F81C2242F00102C3F81C22D3F8002222
S31508000CA022F00102C3F80022BDE8F08741F21430B1
S31508000CB0C0F60000F021FFF73FFF71E738B504469C
S31508000CC00D464FF4C843C4F200039B6813F0806FC7
S31508000CD007D141F21430C0F600004FF4A271FFF7B5
S31508000CE02BFF4FF4C843C4F20003D3F8802102F067
S31508000CF00102C3F88021D3F8802142F07C4242F4F5
S31508000D000012C3F88021C3F88451E178A27812044E
S31508000D1042EA016221780A43617842EA0122C3F86D
S31508000D208821E179A279120442EA016221790A430B
S31508000D30617942EA0122C3F88C21D3F8802142F076
S31508000D400102C3F880219B6813F0806F09D14FF424
S31508000D50C844C4F20004FFF7EDFEA36813F0806FE1
S31508000D60F9D038BD4FF4C843C4F20003DB6813F06A
S31508000D70030F39D04FF4C843C4F20003D3F8B021A7
S31508000D8040F26763B3EB525F18BF002023D14FF4DC
S31508000D90C843C4F20003D3F8B8210270D3F8B821C7
S31508000DA0120A4270D3F8B821120C8270D3F8B8210F
S31508000DB0120EC270D3F8BC210271D3F8BC21120AF4
S31508000DC04271D3F8BC21120C8271D3F8BC311B0EC8
S31508000DD0C3710120FFE74FF4C843C4F20003DA6881
S31508000DE042F02002DA6070470020704708B500F02C
S31508000DF00DFAA8B1FFF7C8F990B1FFF74FFC00F05C
S31508000E0027FA00F0F1F920F0604020F07F024EF654
S31508000E100853CEF200031A6000F0E6F943689847D3
S31508000E2008BD00BF70B5561EB6B24AB14C1E0E4478
S31508000E30451A14F8013F2B55FFF77CFEB442F8D14A
S31508000E4070BD00BFF8B507460024254641F28C362A
S31508000E50C0F60006FFF76EFEA359BB420ED831193D
S31508000E6049680B449F4209D241F28C33C0F600030D
S31508000E7005EB450203EB8203187AF8BD01350C34FD
S31508000E80842CE7D1FF20F8BD2DE9F8438046006899
S31508000E90FFF7D8FFFF2830D0FFF7EAF9F320FFF76E
S31508000EA007FAFFF70BFA01281CBF002408F104090A
S31508000EB004D1FFF7F3F90020BDE8F883D8F80060FD
S31508000EC0A71959F80450FFF735FE38462946FFF7A3
S31508000ED073FA082807D1A359AB4206D10434B4F5EE
S31508000EE0007FEBD103E0002402E0002400E00124A7
S31508000EF0FFF7D4F92046BDE8F8830020BDE8F8835B
S31508000F0038B504460D4640F2A003C2F200039842E3
S31508000F1009D04FF48043C0F6000399420BD0FFF77F
S31508000F20B3FF20B917E040F2A424C2F20004C5F3C7
S31508000F30080393B903E040F2A004C2F20004236850
S31508000F409D420CD0204640F8045B29464FF40072B7
S31508000F50FFF768FF03E0002038BD002038BD2046B3
S31508000F6038BD00BF2DE9F04106460C4617461D461A
S31508000F704FEA51284FEA48280368B3F1FF3F06D1E4
S31508000F8040F8048B41464FF40072FFF74BFF336875
S31508000F90434505D030464146FFF7B2FF0646D0B175
S31508000FA03368E41A3444043408F50078FFF7C2FDC0
S31508000FB0331DE31AB3F5007F06D330464146FFF7E3
S31508000FC09FFF064650B1041D17F8013B04F8013B84
S31508000FD0013DEBD105E00020BDE8F0810020BDE829
S31508000FE0F0810120BDE8F08140F2A423C2F200039B
S31508000FF04FF0FF321A6040F2A003C2F200031A60F3
S31508001000704700BF70B504460D461646FFF71AFF2F
S31508001010FF281BD0681E2044FFF714FFFF2817D0AF
S31508001020620A4FF48043C0F60003B3EB422F07BFB2
S3150800103040F2A000C2F2000040F2A420C2F2000072
S31508001040214632462B46FFF78DFF70BD002070BD46
S31508001050002070BDF8B505460E46FFF7F3FE0446B8
S31508001060701E2844FFF7EEFE0546FF2C18BFFF2822
S3150800107032D084422AD85CB30B282BD8FFF7F8F86D
S31508001080F320FFF715F9FFF719F901281EBF41F2FA
S315080010905C36C0F60006022703D1FFF7FFF80020EA
S315080010A0F8BDFFF747FD36F814003946FFF74CF947
S315080010B0082803D0FFF7F2F80020F8BD0134E4B29F
S315080010C0A542EED2FFF7EAF80120F8BD0020F8BDE8
S315080010D00020F8BD0020F8BD0020F8BD00B583B09B
S315080010E040F2A003C2F200031B68B3F1FF3F08BF3A
S315080010F001201CD040F2A003C2F2000399685A6886
S315080011001144DA6811441A6911445A6911449A69F2
S315080011100A44D96953185B4202AA42F8043D44F2CC
S315080011208810C0F600000421FFF76CFFFFE703B044
S315080011305DF804FB44F20402C0F600024FF4804353
S31508001140C0F6000310681B68184444F20803C0F68A
S3150800115000031B68184444F20C03C0F600031B681E
S31508001160184444F21003C0F600031B68184444F2FE
S315080011701403C0F600031B68184444F21803C0F6AB
S3150800118000031B68184444F28813C0F600031B6862
S315080011901844D0F1010038BF0020704708B540F266
S315080011A0A003C2F200031B68B3F1FF3F06D040F26A
S315080011B0A000C2F20000FFF767FE88B140F2A42340
S315080011C0C2F200031B68B3F1FF3F0BD040F2A42024
S315080011D0C2F20000FFF758FE003018BF012008BD14
S315080011E0002008BD012008BD4FF48040C0F600006D
S315080011F0704700BF08B5FFF7F7FE08BD08B5FFF74B
S3150800120001FF08BD08B5FFF725FF08BD08B5FFF7BC
S3150800121091FF08BD08B5FFF761FF10B1FFF7BEFFE4
S3150800122008BD002008BD00BF4EF21003CEF2000331
S3150800123000221A6049F23F01C0F2020159609A6021
S315080012400521196040F2A843C2F200031A607047EC
S315080012504EF21003CEF2000300221A60704700BF58
S315080012604EF21003CEF200031B6813F4803F1FBF33
S3150800127040F2A843C2F200031A68013218BF1A6086
S31508001280704700BF08B5FFF7EBFF40F2A843C2F26C
S315080012900003186808BD00BF08B541F21040C0F643
S315080012A000003621FFF748FC08BD00BF10B572B62E
S315080012B040F20002C2F2000240F20103C2F2000349
S315080012C09A4210D2131D0E4CE41A24F00304043477
S315080012D00023104641F23C41C0F600015A581A5004
S315080012E00433A342FAD1074807494FF0000288425F
S315080012F0B8BF40F8042BFADBFEF75CFF10BD00BF51
S315080013000400002004000020AC0400204F70656E25
S31508001310424C54002E2E2F2E2E2F2E2E2F536F7505
S315080013207263652F41524D434D345F53544D3332EA
S315080013302F63616E2E63000005020602060307038B
S315080013400803090309040A040B040C040C050D051B
S315080013500E050F050F0610061007100800000800F6
S31508001360100018002000280030003800400048000F
S31508001370500058008000880090009800A000A8003F
S31508001380B000B800C000C800D000D800004000086F
S315080013900040000001000000008000080040000036
S315080013A00200000000C00008004000000300000022
S315080013B00000010800000100040000000000020807
S315080013C000000200050000000000040800000200FA
S315080013D006000000000006080000020007000000E2
S315080013E000000808000002000800000000000A08C3
S315080013F0000002000900000000000C0800000200BE
S315080014000A00000000000E08000002000B000000A1
S315080014102E2E2F2E2E2F2E2E2F536F757263652F7D
S3150800142041524D434D345F53544D33322F47434356
S311080014302F766563746F72732E630000DC
S3060800143C049D
S70508000000F2
